{
  "_format": "hh-sol-artifact-1",
  "contractName": "ERC20",
  "sourceName": "contracts/ERC20.sol",
  "abi": [
    {
      "inputs": [],
      "stateMutability": "nonpayable",
      "type": "constructor"
    },
    {
      "anonymous": false,
      "inputs": [
        {
          "indexed": true,
          "internalType": "address",
          "name": "owner",
          "type": "address"
        },
        {
          "indexed": true,
          "internalType": "address",
          "name": "spender",
          "type": "address"
        },
        {
          "indexed": false,
          "internalType": "uint256",
          "name": "value",
          "type": "uint256"
        }
      ],
      "name": "Approval",
      "type": "event"
    },
    {
      "anonymous": false,
      "inputs": [
        {
          "indexed": true,
          "internalType": "address",
          "name": "previousOwner",
          "type": "address"
        },
        {
          "indexed": true,
          "internalType": "address",
          "name": "newOwner",
          "type": "address"
        }
      ],
      "name": "OwnershipTransferred",
      "type": "event"
    },
    {
      "anonymous": false,
      "inputs": [
        {
          "indexed": false,
          "internalType": "address",
          "name": "account",
          "type": "address"
        }
      ],
      "name": "Paused",
      "type": "event"
    },
    {
      "anonymous": false,
      "inputs": [
        {
          "indexed": false,
          "internalType": "uint256",
          "name": "id",
          "type": "uint256"
        }
      ],
      "name": "Snapshot",
      "type": "event"
    },
    {
      "anonymous": false,
      "inputs": [
        {
          "indexed": true,
          "internalType": "address",
          "name": "from",
          "type": "address"
        },
        {
          "indexed": true,
          "internalType": "address",
          "name": "to",
          "type": "address"
        },
        {
          "indexed": false,
          "internalType": "uint256",
          "name": "value",
          "type": "uint256"
        }
      ],
      "name": "Transfer",
      "type": "event"
    },
    {
      "anonymous": false,
      "inputs": [
        {
          "indexed": false,
          "internalType": "address",
          "name": "account",
          "type": "address"
        }
      ],
      "name": "Unpaused",
      "type": "event"
    },
    {
      "inputs": [],
      "name": "DOMAIN_SEPARATOR",
      "outputs": [
        {
          "internalType": "bytes32",
          "name": "",
          "type": "bytes32"
        }
      ],
      "stateMutability": "view",
      "type": "function"
    },
    {
      "inputs": [
        {
          "internalType": "address",
          "name": "owner",
          "type": "address"
        },
        {
          "internalType": "address",
          "name": "spender",
          "type": "address"
        }
      ],
      "name": "allowance",
      "outputs": [
        {
          "internalType": "uint256",
          "name": "",
          "type": "uint256"
        }
      ],
      "stateMutability": "view",
      "type": "function"
    },
    {
      "inputs": [
        {
          "internalType": "address",
          "name": "spender",
          "type": "address"
        },
        {
          "internalType": "uint256",
          "name": "amount",
          "type": "uint256"
        }
      ],
      "name": "approve",
      "outputs": [
        {
          "internalType": "bool",
          "name": "",
          "type": "bool"
        }
      ],
      "stateMutability": "nonpayable",
      "type": "function"
    },
    {
      "inputs": [
        {
          "internalType": "address",
          "name": "account",
          "type": "address"
        }
      ],
      "name": "balanceOf",
      "outputs": [
        {
          "internalType": "uint256",
          "name": "",
          "type": "uint256"
        }
      ],
      "stateMutability": "view",
      "type": "function"
    },
    {
      "inputs": [
        {
          "internalType": "address",
          "name": "account",
          "type": "address"
        },
        {
          "internalType": "uint256",
          "name": "snapshotId",
          "type": "uint256"
        }
      ],
      "name": "balanceOfAt",
      "outputs": [
        {
          "internalType": "uint256",
          "name": "",
          "type": "uint256"
        }
      ],
      "stateMutability": "view",
      "type": "function"
    },
    {
      "inputs": [
        {
          "internalType": "uint256",
          "name": "amount",
          "type": "uint256"
        }
      ],
      "name": "burn",
      "outputs": [],
      "stateMutability": "nonpayable",
      "type": "function"
    },
    {
      "inputs": [
        {
          "internalType": "address",
          "name": "account",
          "type": "address"
        },
        {
          "internalType": "uint256",
          "name": "amount",
          "type": "uint256"
        }
      ],
      "name": "burnFrom",
      "outputs": [],
      "stateMutability": "nonpayable",
      "type": "function"
    },
    {
      "inputs": [],
      "name": "decimals",
      "outputs": [
        {
          "internalType": "uint8",
          "name": "",
          "type": "uint8"
        }
      ],
      "stateMutability": "view",
      "type": "function"
    },
    {
      "inputs": [
        {
          "internalType": "address",
          "name": "spender",
          "type": "address"
        },
        {
          "internalType": "uint256",
          "name": "subtractedValue",
          "type": "uint256"
        }
      ],
      "name": "decreaseAllowance",
      "outputs": [
        {
          "internalType": "bool",
          "name": "",
          "type": "bool"
        }
      ],
      "stateMutability": "nonpayable",
      "type": "function"
    },
    {
      "inputs": [
        {
          "internalType": "address",
          "name": "spender",
          "type": "address"
        },
        {
          "internalType": "uint256",
          "name": "addedValue",
          "type": "uint256"
        }
      ],
      "name": "increaseAllowance",
      "outputs": [
        {
          "internalType": "bool",
          "name": "",
          "type": "bool"
        }
      ],
      "stateMutability": "nonpayable",
      "type": "function"
    },
    {
      "inputs": [
        {
          "internalType": "address",
          "name": "to",
          "type": "address"
        },
        {
          "internalType": "uint256",
          "name": "amount",
          "type": "uint256"
        }
      ],
      "name": "mint",
      "outputs": [],
      "stateMutability": "nonpayable",
      "type": "function"
    },
    {
      "inputs": [],
      "name": "name",
      "outputs": [
        {
          "internalType": "string",
          "name": "",
          "type": "string"
        }
      ],
      "stateMutability": "view",
      "type": "function"
    },
    {
      "inputs": [
        {
          "internalType": "address",
          "name": "owner",
          "type": "address"
        }
      ],
      "name": "nonces",
      "outputs": [
        {
          "internalType": "uint256",
          "name": "",
          "type": "uint256"
        }
      ],
      "stateMutability": "view",
      "type": "function"
    },
    {
      "inputs": [],
      "name": "owner",
      "outputs": [
        {
          "internalType": "address",
          "name": "",
          "type": "address"
        }
      ],
      "stateMutability": "view",
      "type": "function"
    },
    {
      "inputs": [],
      "name": "pause",
      "outputs": [],
      "stateMutability": "nonpayable",
      "type": "function"
    },
    {
      "inputs": [],
      "name": "paused",
      "outputs": [
        {
          "internalType": "bool",
          "name": "",
          "type": "bool"
        }
      ],
      "stateMutability": "view",
      "type": "function"
    },
    {
      "inputs": [
        {
          "internalType": "address",
          "name": "owner",
          "type": "address"
        },
        {
          "internalType": "address",
          "name": "spender",
          "type": "address"
        },
        {
          "internalType": "uint256",
          "name": "value",
          "type": "uint256"
        },
        {
          "internalType": "uint256",
          "name": "deadline",
          "type": "uint256"
        },
        {
          "internalType": "uint8",
          "name": "v",
          "type": "uint8"
        },
        {
          "internalType": "bytes32",
          "name": "r",
          "type": "bytes32"
        },
        {
          "internalType": "bytes32",
          "name": "s",
          "type": "bytes32"
        }
      ],
      "name": "permit",
      "outputs": [],
      "stateMutability": "nonpayable",
      "type": "function"
    },
    {
      "inputs": [],
      "name": "renounceOwnership",
      "outputs": [],
      "stateMutability": "nonpayable",
      "type": "function"
    },
    {
      "inputs": [],
      "name": "snapshot",
      "outputs": [],
      "stateMutability": "nonpayable",
      "type": "function"
    },
    {
      "inputs": [],
      "name": "symbol",
      "outputs": [
        {
          "internalType": "string",
          "name": "",
          "type": "string"
        }
      ],
      "stateMutability": "view",
      "type": "function"
    },
    {
      "inputs": [],
      "name": "totalSupply",
      "outputs": [
        {
          "internalType": "uint256",
          "name": "",
          "type": "uint256"
        }
      ],
      "stateMutability": "view",
      "type": "function"
    },
    {
      "inputs": [
        {
          "internalType": "uint256",
          "name": "snapshotId",
          "type": "uint256"
        }
      ],
      "name": "totalSupplyAt",
      "outputs": [
        {
          "internalType": "uint256",
          "name": "",
          "type": "uint256"
        }
      ],
      "stateMutability": "view",
      "type": "function"
    },
    {
      "inputs": [
        {
          "internalType": "address",
          "name": "to",
          "type": "address"
        },
        {
          "internalType": "uint256",
          "name": "amount",
          "type": "uint256"
        }
      ],
      "name": "transfer",
      "outputs": [
        {
          "internalType": "bool",
          "name": "",
          "type": "bool"
        }
      ],
      "stateMutability": "nonpayable",
      "type": "function"
    },
    {
      "inputs": [
        {
          "internalType": "address",
          "name": "from",
          "type": "address"
        },
        {
          "internalType": "address",
          "name": "to",
          "type": "address"
        },
        {
          "internalType": "uint256",
          "name": "amount",
          "type": "uint256"
        }
      ],
      "name": "transferFrom",
      "outputs": [
        {
          "internalType": "bool",
          "name": "",
          "type": "bool"
        }
      ],
      "stateMutability": "nonpayable",
      "type": "function"
    },
    {
      "inputs": [
        {
          "internalType": "address",
          "name": "newOwner",
          "type": "address"
        }
      ],
      "name": "transferOwnership",
      "outputs": [],
      "stateMutability": "nonpayable",
      "type": "function"
    },
    {
      "inputs": [],
      "name": "unpause",
      "outputs": [],
      "stateMutability": "nonpayable",
      "type": "function"
    }
  ],
  "bytecode": "0x6101406040523480156200001257600080fd5b50604051806040016040528060048152602001631554d11560e21b81525080604051806040016040528060018152602001603160f81b815250604051806040016040528060048152602001631554d11560e21b815250604051806040016040528060048152602001631554d11560e21b815250816003908162000096919062000260565b506004620000a5828262000260565b505050620000c2620000bc6200016560201b60201c565b62000169565b6009805460ff60a01b19169055815160209283012081519183019190912060e08290526101008190524660a0818152604080517f8b73c3c69bb8fe3d512ecc4cf759cc79239f7b179b0ffacaa9a75d522b39400f818801819052818301969096526060810194909452608080850193909352308483018190528151808603909301835260c09485019091528151919095012090529190915261012052506200032c565b3390565b600980546001600160a01b038381166001600160a01b0319831681179093556040519116919082907f8be0079c531659141344cd1fd0a4f28419497f9722a3daafe3b4186f6b6457e090600090a35050565b634e487b7160e01b600052604160045260246000fd5b600181811c90821680620001e657607f821691505b6020821081036200020757634e487b7160e01b600052602260045260246000fd5b50919050565b601f8211156200025b57600081815260208120601f850160051c81016020861015620002365750805b601f850160051c820191505b81811015620002575782815560010162000242565b5050505b505050565b81516001600160401b038111156200027c576200027c620001bb565b62000294816200028d8454620001d1565b846200020d565b602080601f831160018114620002cc5760008415620002b35750858301515b600019600386901b1c1916600185901b17855562000257565b600085815260208120601f198616915b82811015620002fd57888601518255948401946001909101908401620002dc565b50858210156200031c5787850151600019600388901b60f8161c191681555b5050505050600190811b01905550565b60805160a05160c05160e05161010051610120516118d36200037c6000396000610bd601526000610c2501526000610c0001526000610b5901526000610b8301526000610bad01526118d36000f3fe608060405234801561001057600080fd5b506004361061016e5760003560e01c8063715018a6116100ce5780639711715a116100875780639711715a146102ba578063981b24d0146102c2578063a457c2d7146102d5578063a9059cbb146102e8578063d505accf146102fb578063dd62ed3e1461030e578063f2fde38b1461032157600080fd5b8063715018a61461026157806379cc6790146102695780637ecebe001461027c5780638456cb591461028f5780638da5cb5b1461029757806395d89b41146102b257600080fd5b8063395093511161012b57806339509351146101f05780633f4ba83a1461020357806340c10f191461020d57806342966c68146102205780634ee2cd7e146102335780635c975abb1461024657806370a082311461024e57600080fd5b806306fdde0314610173578063095ea7b31461019157806318160ddd146101b457806323b872dd146101c6578063313ce567146101d95780633644e515146101e8575b600080fd5b61017b610334565b604051610188919061161a565b60405180910390f35b6101a461019f36600461167f565b6103c6565b6040519015158152602001610188565b6002545b604051908152602001610188565b6101a46101d43660046116a9565b6103e0565b60405160128152602001610188565b6101b8610404565b6101a46101fe36600461167f565b610413565b61020b610435565b005b61020b61021b36600461167f565b610447565b61020b61022e3660046116e5565b61045d565b6101b861024136600461167f565b61046a565b6101a46104b3565b6101b861025c3660046116fe565b6104c3565b61020b6104de565b61020b61027736600461167f565b6104f0565b6101b861028a3660046116fe565b610505565b61020b610523565b6009546040516001600160a01b039091168152602001610188565b61017b610533565b61020b610542565b6101b86102d03660046116e5565b610552565b6101a46102e336600461167f565b61057d565b6101a46102f636600461167f565b6105fd565b61020b610309366004611719565b61060b565b6101b861031c36600461178c565b61076f565b61020b61032f3660046116fe565b61079a565b606060038054610343906117bf565b80601f016020809104026020016040519081016040528092919081815260200182805461036f906117bf565b80156103bc5780601f10610391576101008083540402835291602001916103bc565b820191906000526020600020905b81548152906001019060200180831161039f57829003601f168201915b5050505050905090565b6000336103d4818585610810565b60019150505b92915050565b6000336103ee858285610935565b6103f98585856109af565b506001949350505050565b600061040e610b4c565b905090565b6000336103d4818585610426838361076f565b6104309190611809565b610810565b61043d610c73565b610445610ccd565b565b61044f610c73565b6104598282610d22565b5050565b6104673382610ddb565b50565b6001600160a01b038216600090815260056020526040812081908190610491908590610f04565b91509150816104a8576104a3856104c3565b6104aa565b805b95945050505050565b600954600160a01b900460ff1690565b6001600160a01b031660009081526020819052604090205490565b6104e6610c73565b6104456000610ffa565b6104fb823383610935565b6104598282610ddb565b6001600160a01b0381166000908152600a60205260408120546103da565b61052b610c73565b61044561104c565b606060048054610343906117bf565b61054a610c73565b61046761108f565b6000806000610562846006610f04565b915091508161057357600254610575565b805b949350505050565b6000338161058b828661076f565b9050838110156105f05760405162461bcd60e51b815260206004820152602560248201527f45524332303a2064656372656173656420616c6c6f77616e63652062656c6f77604482015264207a65726f60d81b60648201526084015b60405180910390fd5b6103f98286868403610810565b6000336103d48185856109af565b8342111561065b5760405162461bcd60e51b815260206004820152601d60248201527f45524332305065726d69743a206578706972656420646561646c696e6500000060448201526064016105e7565b60007f6e71edae12b1b97f4d1f60370fef10105fa2faae0126114a169c64845d6126c988888861068a8c6110e9565b6040805160208101969096526001600160a01b0394851690860152929091166060840152608083015260a082015260c0810186905260e00160405160208183030381529060405280519060200120905060006106e582611111565b905060006106f58287878761115f565b9050896001600160a01b0316816001600160a01b0316146107585760405162461bcd60e51b815260206004820152601e60248201527f45524332305065726d69743a20696e76616c6964207369676e6174757265000060448201526064016105e7565b6107638a8a8a610810565b50505050505050505050565b6001600160a01b03918216600090815260016020908152604080832093909416825291909152205490565b6107a2610c73565b6001600160a01b0381166108075760405162461bcd60e51b815260206004820152602660248201527f4f776e61626c653a206e6577206f776e657220697320746865207a65726f206160448201526564647265737360d01b60648201526084016105e7565b61046781610ffa565b6001600160a01b0383166108725760405162461bcd60e51b8152602060048201526024808201527f45524332303a20617070726f76652066726f6d20746865207a65726f206164646044820152637265737360e01b60648201526084016105e7565b6001600160a01b0382166108d35760405162461bcd60e51b815260206004820152602260248201527f45524332303a20617070726f766520746f20746865207a65726f206164647265604482015261737360f01b60648201526084016105e7565b6001600160a01b0383811660008181526001602090815260408083209487168084529482529182902085905590518481527f8c5be1e5ebec7d5bd14f71427d1e84f3dd0314c0f7b2291e5b200ac8c7c3b92591015b60405180910390a3505050565b6000610941848461076f565b905060001981146109a9578181101561099c5760405162461bcd60e51b815260206004820152601d60248201527f45524332303a20696e73756666696369656e7420616c6c6f77616e636500000060448201526064016105e7565b6109a98484848403610810565b50505050565b6001600160a01b038316610a135760405162461bcd60e51b815260206004820152602560248201527f45524332303a207472616e736665722066726f6d20746865207a65726f206164604482015264647265737360d81b60648201526084016105e7565b6001600160a01b038216610a755760405162461bcd60e51b815260206004820152602360248201527f45524332303a207472616e7366657220746f20746865207a65726f206164647260448201526265737360e81b60648201526084016105e7565b610a80838383611187565b6001600160a01b03831660009081526020819052604090205481811015610af85760405162461bcd60e51b815260206004820152602660248201527f45524332303a207472616e7366657220616d6f756e7420657863656564732062604482015265616c616e636560d01b60648201526084016105e7565b6001600160a01b038481166000818152602081815260408083208787039055938716808352918490208054870190559251858152909260008051602061187e833981519152910160405180910390a36109a9565b6000306001600160a01b037f000000000000000000000000000000000000000000000000000000000000000016148015610ba557507f000000000000000000000000000000000000000000000000000000000000000046145b15610bcf57507f000000000000000000000000000000000000000000000000000000000000000090565b50604080517f00000000000000000000000000000000000000000000000000000000000000006020808301919091527f0000000000000000000000000000000000000000000000000000000000000000828401527f000000000000000000000000000000000000000000000000000000000000000060608301524660808301523060a0808401919091528351808403909101815260c0909201909252805191012090565b6009546001600160a01b031633146104455760405162461bcd60e51b815260206004820181905260248201527f4f776e61626c653a2063616c6c6572206973206e6f7420746865206f776e657260448201526064016105e7565b610cd561119a565b6009805460ff60a01b191690557f5db9ee0a495bf2e6ff9c91a7834c1ba4fdd244a5e8aa4e537bd38aeae4b073aa335b6040516001600160a01b03909116815260200160405180910390a1565b6001600160a01b038216610d785760405162461bcd60e51b815260206004820152601f60248201527f45524332303a206d696e7420746f20746865207a65726f20616464726573730060448201526064016105e7565b610d8460008383611187565b8060026000828254610d969190611809565b90915550506001600160a01b0382166000818152602081815260408083208054860190555184815260008051602061187e833981519152910160405180910390a35050565b6001600160a01b038216610e3b5760405162461bcd60e51b815260206004820152602160248201527f45524332303a206275726e2066726f6d20746865207a65726f206164647265736044820152607360f81b60648201526084016105e7565b610e4782600083611187565b6001600160a01b03821660009081526020819052604090205481811015610ebb5760405162461bcd60e51b815260206004820152602260248201527f45524332303a206275726e20616d6f756e7420657863656564732062616c616e604482015261636560f01b60648201526084016105e7565b6001600160a01b03831660008181526020818152604080832086860390556002805487900390555185815291929160008051602061187e8339815191529101610928565b505050565b60008060008411610f505760405162461bcd60e51b815260206004820152601660248201527504552433230536e617073686f743a20696420697320360541b60448201526064016105e7565b610f586111e5565b841115610fa75760405162461bcd60e51b815260206004820152601d60248201527f4552433230536e617073686f743a206e6f6e6578697374656e7420696400000060448201526064016105e7565b6000610fb384866111f0565b84549091508103610fcb576000809250925050610ff3565b6001846001018281548110610fe257610fe261181c565b906000526020600020015492509250505b9250929050565b600980546001600160a01b038381166001600160a01b0319831681179093556040519116919082907f8be0079c531659141344cd1fd0a4f28419497f9722a3daafe3b4186f6b6457e090600090a35050565b61105461129d565b6009805460ff60a01b1916600160a01b1790557f62e78cea01bee320cd4e420270b5ea74000d11b0c9f74754ebdbfc544b05a258610d053390565b600061109f600880546001019055565b60006110a96111e5565b90507f8030e83b04d87bef53480e26263266d6ca66863aa8506aca6f2559d18aa1cb67816040516110dc91815260200190565b60405180910390a1919050565b6001600160a01b0381166000908152600a602052604090208054600181018255905b50919050565b60006103da61111e610b4c565b8360405161190160f01b6020820152602281018390526042810182905260009060620160405160208183030381529060405280519060200120905092915050565b6000806000611170878787876112e5565b9150915061117d8161139f565b5095945050505050565b61118f61129d565b610eff8383836114e4565b6111a26104b3565b6104455760405162461bcd60e51b815260206004820152601460248201527314185d5cd8589b194e881b9bdd081c185d5cd95960621b60448201526064016105e7565b600061040e60085490565b81546000908103611203575060006103da565b82546000905b8082101561125057600061121d838361152c565b6000878152602090209091508590820154111561123c5780915061124a565b611247816001611809565b92505b50611209565b60008211801561127c5750836112798661126b600186611832565b600091825260209091200190565b54145b156112955761128c600183611832565b925050506103da565b5090506103da565b6112a56104b3565b156104455760405162461bcd60e51b815260206004820152601060248201526f14185d5cd8589b194e881c185d5cd95960821b60448201526064016105e7565b6000806fa2a8918ca85bafe22016d0b997e4df60600160ff1b038311156113125750600090506003611396565b6040805160008082526020820180845289905260ff881692820192909252606081018690526080810185905260019060a0016020604051602081039080840390855afa158015611366573d6000803e3d6000fd5b5050604051601f1901519150506001600160a01b03811661138f57600060019250925050611396565b9150600090505b94509492505050565b60008160048111156113b3576113b3611845565b036113bb5750565b60018160048111156113cf576113cf611845565b036114175760405162461bcd60e51b815260206004820152601860248201527745434453413a20696e76616c6964207369676e617475726560401b60448201526064016105e7565b600281600481111561142b5761142b611845565b036114785760405162461bcd60e51b815260206004820152601f60248201527f45434453413a20696e76616c6964207369676e6174757265206c656e6774680060448201526064016105e7565b600381600481111561148c5761148c611845565b036104675760405162461bcd60e51b815260206004820152602260248201527f45434453413a20696e76616c6964207369676e6174757265202773272076616c604482015261756560f01b60648201526084016105e7565b6001600160a01b038316611503576114fb8261154e565b610eff611578565b6001600160a01b03821661151a576114fb8361154e565b6115238361154e565b610eff8261154e565b600061153b600284841861185b565b61154790848416611809565b9392505050565b6001600160a01b038116600090815260056020526040902061046790611573836104c3565b611586565b610445600661157360025490565b60006115906111e5565b90508061159c846115d0565b1015610eff578254600180820185556000858152602080822090930193909355938401805494850181558252902090910155565b805460009081036115e357506000919050565b815482906115f390600190611832565b815481106116035761160361181c565b90600052602060002001549050919050565b919050565b600060208083528351808285015260005b818110156116475785810183015185820160400152820161162b565b506000604082860101526040601f19601f8301168501019250505092915050565b80356001600160a01b038116811461161557600080fd5b6000806040838503121561169257600080fd5b61169b83611668565b946020939093013593505050565b6000806000606084860312156116be57600080fd5b6116c784611668565b92506116d560208501611668565b9150604084013590509250925092565b6000602082840312156116f757600080fd5b5035919050565b60006020828403121561171057600080fd5b61154782611668565b600080600080600080600060e0888a03121561173457600080fd5b61173d88611668565b965061174b60208901611668565b95506040880135945060608801359350608088013560ff8116811461176f57600080fd5b9699959850939692959460a0840135945060c09093013592915050565b6000806040838503121561179f57600080fd5b6117a883611668565b91506117b660208401611668565b90509250929050565b600181811c908216806117d357607f821691505b60208210810361110b57634e487b7160e01b600052602260045260246000fd5b634e487b7160e01b600052601160045260246000fd5b808201808211156103da576103da6117f3565b634e487b7160e01b600052603260045260246000fd5b818103818111156103da576103da6117f3565b634e487b7160e01b600052602160045260246000fd5b60008261187857634e487b7160e01b600052601260045260246000fd5b50049056feddf252ad1be2c89b69c2b068fc378daa952ba7f163c4a11628f55a4df523b3efa2646970667358221220554a5d566926dac92061c15ca3afe2a6bbf6dd0c8344ac32620e7587e6cd902b64736f6c63430008120033",
  "linkReferences": {},
  "deployedLinkReferences": {}
}