{
  "_format": "hh-sol-artifact-1",
  "contractName": "OriginationManager",
  "sourceName": "contracts/OriginationManager.sol",
  "abi": [
    {
      "inputs": [
        {
          "internalType": "address",
          "name": "_loanCore",
          "type": "address"
        }
      ],
      "stateMutability": "nonpayable",
      "type": "constructor"
    },
    {
      "inputs": [
        {
          "internalType": "address",
          "name": "nftAddress",
          "type": "address"
        },
        {
          "internalType": "uint256",
          "name": "tokenId",
          "type": "uint256"
        },
        {
          "internalType": "uint256",
          "name": "price",
          "type": "uint256"
        }
      ],
      "name": "PriceNotMet",
      "type": "error"
    },
    {
      "inputs": [
        {
          "internalType": "uint256",
          "name": "amount",
          "type": "uint256"
        },
        {
          "internalType": "uint256",
          "name": "parts",
          "type": "uint256"
        },
        {
          "internalType": "uint256",
          "name": "interest",
          "type": "uint256"
        }
      ],
      "name": "getFirstInstallmentByAmount",
      "outputs": [
        {
          "internalType": "uint256",
          "name": "installment",
          "type": "uint256"
        }
      ],
      "stateMutability": "view",
      "type": "function"
    },
    {
      "inputs": [
        {
          "components": [
            {
              "internalType": "uint256",
              "name": "durationSecs",
              "type": "uint256"
            },
            {
              "internalType": "uint256",
              "name": "principal",
              "type": "uint256"
            },
            {
              "internalType": "uint256",
              "name": "interest",
              "type": "uint256"
            },
            {
              "internalType": "uint256",
              "name": "collateralTokenId",
              "type": "uint256"
            },
            {
              "internalType": "address",
              "name": "payableCurrency",
              "type": "address"
            },
            {
              "internalType": "uint256",
              "name": "parts",
              "type": "uint256"
            },
            {
              "internalType": "uint256",
              "name": "partduration",
              "type": "uint256"
            }
          ],
          "internalType": "struct PayLaterLoanLibrary.LoanTerms",
          "name": "loanTerms",
          "type": "tuple"
        },
        {
          "internalType": "address",
          "name": "borrowerPrimaryAddress",
          "type": "address"
        },
        {
          "internalType": "address",
          "name": "borrowerSecondaryAddress",
          "type": "address"
        },
        {
          "internalType": "address",
          "name": "lenderPrimaryAddress",
          "type": "address"
        },
        {
          "internalType": "uint256",
          "name": "tokenType",
          "type": "uint256"
        },
        {
          "internalType": "address",
          "name": "tokenAddress",
          "type": "address"
        }
      ],
      "name": "initializePayLaterRequest",
      "outputs": [
        {
          "internalType": "uint256",
          "name": "payLaterLoanId",
          "type": "uint256"
        }
      ],
      "stateMutability": "payable",
      "type": "function"
    },
    {
      "inputs": [
        {
          "components": [
            {
              "internalType": "uint256",
              "name": "durationSecs",
              "type": "uint256"
            },
            {
              "internalType": "uint256",
              "name": "principal",
              "type": "uint256"
            },
            {
              "internalType": "uint256",
              "name": "collateralTokenId",
              "type": "uint256"
            },
            {
              "internalType": "address",
              "name": "payableCurrency",
              "type": "address"
            },
            {
              "internalType": "uint256",
              "name": "parts",
              "type": "uint256"
            },
            {
              "internalType": "uint256",
              "name": "partduration",
              "type": "uint256"
            }
          ],
          "internalType": "struct RentalLibrary.RentalTerms",
          "name": "rentalTerms",
          "type": "tuple"
        },
        {
          "internalType": "address",
          "name": "borrowerPrimaryAddress",
          "type": "address"
        },
        {
          "internalType": "address",
          "name": "borrowerSecondaryAddress",
          "type": "address"
        },
        {
          "internalType": "address",
          "name": "lenderPrimaryAddress",
          "type": "address"
        },
        {
          "internalType": "uint256",
          "name": "tokenType",
          "type": "uint256"
        },
        {
          "internalType": "address",
          "name": "tokenAddress",
          "type": "address"
        },
        {
          "internalType": "uint256",
          "name": "rentalType",
          "type": "uint256"
        }
      ],
      "name": "initializeRentalRequest",
      "outputs": [
        {
          "internalType": "uint256",
          "name": "rentalLoanId",
          "type": "uint256"
        }
      ],
      "stateMutability": "nonpayable",
      "type": "function"
    },
    {
      "inputs": [],
      "name": "loanCore",
      "outputs": [
        {
          "internalType": "address",
          "name": "",
          "type": "address"
        }
      ],
      "stateMutability": "view",
      "type": "function"
    }
  ],
  "bytecode": "0x61014060405234801561001157600080fd5b5060405161119a38038061119a833981016040819052610030916101b0565b604080518082018252601281527127b934b3b4b730ba34b7b726b0b730b3b2b960711b6020808301918252835180850190945260018452603160f81b908401528151902060e08190527fc89efdaa54c0f20c7adf612882df0950f5a951637e0307cdcb4c672f298b8bc66101008190524660a0529192917f8b73c3c69bb8fe3d512ecc4cf759cc79239f7b179b0ffacaa9a75d522b39400f6101178184846040805160208101859052908101839052606081018290524660808201523060a082015260009060c0016040516020818303038152906040528051906020012090509392505050565b6080523060c052610120525050506001600160a01b038216905061018b5760405162461bcd60e51b815260206004820152602160248201527f4f726967696e6174696f6e3a206c6f616e436f7265206e6f7420646566696e656044820152601960fa1b606482015260840160405180910390fd5b600080546001600160a01b0319166001600160a01b03929092169190911790556101e0565b6000602082840312156101c257600080fd5b81516001600160a01b03811681146101d957600080fd5b9392505050565b60805160a05160c05160e0516101005161012051610f7d61021d600039600050506000505060005050600050506000505060005050610f7d6000f3fe60806040526004361061003f5760003560e01c80632692f36d146100445780635c07c3ea1461008157806385f77d3a146100a2578063fadb1a27146100c2575b600080fd5b34801561005057600080fd5b50600054610064906001600160a01b031681565b6040516001600160a01b0390911681526020015b60405180910390f35b61009461008f366004610b3c565b6100e2565b604051908152602001610078565b3480156100ae57600080fd5b506100946100bd366004610bb6565b610515565b3480156100ce57600080fd5b506100946100dd366004610be2565b610599565b6000336001600160a01b038716146101155760405162461bcd60e51b815260040161010c90610c67565b60405180910390fd5b8215806101225750826001145b61013e5760405162461bcd60e51b815260040161010c90610caa565b6000546040516337d8312960e11b81526001600160a01b0390911690636fb0625290610178908a908a908a908a908a908a90600401610ce1565b6020604051808303816000875af1158015610197573d6000803e3d6000fd5b505050506040513d601f19601f820116820180604052508101906101bb9190610d74565b600080546040516313b82dcb60e31b81526004810184905292935090916001600160a01b0390911690639dc16e5890602401602060405180830381865afa15801561020a573d6000803e3d6000fd5b505050506040513d601f19601f8201168201806040525081019061022e9190610d74565b9050600061024260a08a0160808b01610d8d565b6001600160a01b031603610292578034101561028d57604051637c93456560e01b81526001600160a01b0384166004820152606089013560248201526044810182905260640161010c565b610341565b6102b98730836102a860a08d0160808e01610d8d565b6001600160a01b03169291906108cb565b6102c960a0890160808a01610d8d565b60005460405163095ea7b360e01b81526001600160a01b0391821660048201526024810184905291169063095ea7b3906044016020604051808303816000875af115801561031b573d6000803e3d6000fd5b505050506040513d601f19601f8201168201806040525081019061033f9190610daf565b505b836000036103b4576040516323b872dd60e01b81526001600160a01b038416906323b872dd9061037d9088908a9060608e013590600401610dd1565b600060405180830381600087803b15801561039757600080fd5b505af11580156103ab573d6000803e3d6000fd5b50505050610426565b8360010361042657604051637921219560e11b81526001600160a01b0384169063f242432a906103f39088908a9060608e013590600190600401610df5565b600060405180830381600087803b15801561040d57600080fd5b505af1158015610421573d6000803e3d6000fd5b505050505b600061043860a08a0160808b01610d8d565b6001600160a01b0316036104ab5760005460405163227c6a2360e11b8152600481018490526001600160a01b03909116906344f8d4469083906024016000604051808303818588803b15801561048d57600080fd5b505af11580156104a1573d6000803e3d6000fd5b505050505061050a565b60005460405163227c6a2360e11b8152600481018490526001600160a01b03909116906344f8d44690602401600060405180830381600087803b1580156104f157600080fd5b505af1158015610505573d6000803e3d6000fd5b505050505b509695505050505050565b60008054604051631ab1382760e31b81526004810186905260248101859052604481018490526001600160a01b039091169063d589c13890606401602060405180830381865afa15801561056d573d6000803e3d6000fd5b505050506040513d601f19601f820116820180604052508101906105919190610d74565b949350505050565b6000336001600160a01b038816146105c35760405162461bcd60e51b815260040161010c90610c67565b8315806105d05750836001145b6105ec5760405162461bcd60e51b815260040161010c90610caa565b600054604051630e33376560e31b81526001600160a01b0390911690637199bb2890610628908b908b908b908b908b908b908b90600401610e39565b6020604051808303816000875af1158015610647573d6000803e3d6000fd5b505050506040513d601f19601f8201168201806040525081019061066b9190610d74565b60008054604051632b0aabfd60e11b81526004810184905292935090916001600160a01b039091169063561557fa90602401602060405180830381865afa1580156106ba573d6000803e3d6000fd5b505050506040513d601f19601f820116820180604052508101906106de9190610d74565b90506106f68830836102a860808e0160608f01610d8d565b61070660808a0160608b01610d8d565b60005460405163095ea7b360e01b81526001600160a01b0391821660048201526024810184905291169063095ea7b3906044016020604051808303816000875af1158015610758573d6000803e3d6000fd5b505050506040513d601f19601f8201168201806040525081019061077c9190610daf565b50846000036107ef57604080516323b872dd60e01b81526001600160a01b038616916323b872dd916107b8918a918c918f013590600401610dd1565b600060405180830381600087803b1580156107d257600080fd5b505af11580156107e6573d6000803e3d6000fd5b50505050610860565b846001036108605760408051637921219560e11b81526001600160a01b0386169163f242432a9161082d918a918c918f013590600190600401610df5565b600060405180830381600087803b15801561084757600080fd5b505af115801561085b573d6000803e3d6000fd5b505050505b600054604051637410154d60e01b8152600481018490526001600160a01b0390911690637410154d90602401600060405180830381600087803b1580156108a657600080fd5b505af11580156108ba573d6000803e3d6000fd5b50505050505b979650505050505050565b610923846323b872dd60e01b8585856040516024016108ec93929190610dd1565b60408051601f198184030181529190526020810180516001600160e01b03166001600160e01b031990931692909217909152610929565b50505050565b600061097e826040518060400160405280602081526020017f5361666545524332303a206c6f772d6c6576656c2063616c6c206661696c6564815250856001600160a01b0316610a009092919063ffffffff16565b8051909150156109fb578080602001905181019061099c9190610daf565b6109fb5760405162461bcd60e51b815260206004820152602a60248201527f5361666545524332303a204552433230206f7065726174696f6e20646964206e6044820152691bdd081cdd58d8d9595960b21b606482015260840161010c565b505050565b6060610591848460008585600080866001600160a01b03168587604051610a279190610ef8565b60006040518083038185875af1925050503d8060008114610a64576040519150601f19603f3d011682016040523d82523d6000602084013e610a69565b606091505b50915091506108c08783838760608315610ae4578251600003610add576001600160a01b0385163b610add5760405162461bcd60e51b815260206004820152601d60248201527f416464726573733a2063616c6c20746f206e6f6e2d636f6e7472616374000000604482015260640161010c565b5081610591565b6105918383815115610af95781518083602001fd5b8060405162461bcd60e51b815260040161010c9190610f14565b6001600160a01b03169052565b80356001600160a01b0381168114610b3757600080fd5b919050565b600080600080600080868803610180811215610b5757600080fd5b60e0811215610b6557600080fd5b50869550610b7560e08801610b20565b9450610b846101008801610b20565b9350610b936101208801610b20565b92506101408701359150610baa6101608801610b20565b90509295509295509295565b600080600060608486031215610bcb57600080fd5b505081359360208301359350604090920135919050565b6000806000806000806000878903610180811215610bff57600080fd5b60c0811215610c0d57600080fd5b50879650610c1d60c08901610b20565b9550610c2b60e08901610b20565b9450610c3a6101008901610b20565b93506101208801359250610c516101408901610b20565b9150610160880135905092959891949750929550565b60208082526023908201527f4f726967696e6174696f6e3a2073656e646572206e6f74207061727469636970604082015262185b9d60ea1b606082015260800190565b6020808252601a908201527f556e737570706f7274656420546f6b656e207374616e64617264000000000000604082015260600190565b8635815260208088013590820152604080880135908201526060808801359082015261018081016001600160a01b03610d1c60808a01610b20565b16608083015260a088013560a083015260c088013560c0830152610d4360e0830188610b13565b610d51610100830187610b13565b610d5f610120830186610b13565b836101408301526108c0610160830184610b13565b600060208284031215610d8657600080fd5b5051919050565b600060208284031215610d9f57600080fd5b610da882610b20565b9392505050565b600060208284031215610dc157600080fd5b81518015158114610da857600080fd5b6001600160a01b039384168152919092166020820152604081019190915260600190565b6001600160a01b0394851681529290931660208301526040820152606081019190915260a0608082018190526003908201526203078360ec1b60c082015260e00190565b87358152602080890135908201526040808901359082015261018081016001600160a01b03610e6a60608b01610b20565b1660608301526080890135608083015260a089013560a0830152610e9160c0830189610b13565b610e9e60e0830188610b13565b610eac610100830187610b13565b84610120830152610ec1610140830185610b13565b8261016083015298975050505050505050565b60005b83811015610eef578181015183820152602001610ed7565b50506000910152565b60008251610f0a818460208701610ed4565b9190910192915050565b6020815260008251806020840152610f33816040850160208701610ed4565b601f01601f1916919091016040019291505056fea2646970667358221220302ee944f39cc757756c9dcece197685e5cc6b9c9c049f3ee05f8f767003765b64736f6c63430008120033",
  "linkReferences": {},
  "deployedLinkReferences": {}
}