{
  "_format": "hh-sol-artifact-1",
  "contractName": "PayLaterLoanCore",
  "sourceName": "contracts/PayLaterLoanCore.sol",
  "abi": [
    {
      "inputs": [
        {
          "internalType": "contract IPayLaterFeeController",
          "name": "_feeController",
          "type": "address"
        }
      ],
      "stateMutability": "nonpayable",
      "type": "constructor"
    },
    {
      "inputs": [
        {
          "internalType": "address",
          "name": "nftAddress",
          "type": "address"
        },
        {
          "internalType": "uint256",
          "name": "tokenId",
          "type": "uint256"
        },
        {
          "internalType": "uint256",
          "name": "price",
          "type": "uint256"
        }
      ],
      "name": "PriceNotMet",
      "type": "error"
    },
    {
      "anonymous": false,
      "inputs": [
        {
          "indexed": false,
          "internalType": "address",
          "name": "token",
          "type": "address"
        },
        {
          "indexed": false,
          "internalType": "address",
          "name": "to",
          "type": "address"
        },
        {
          "indexed": false,
          "internalType": "uint256",
          "name": "amount",
          "type": "uint256"
        }
      ],
      "name": "FeesClaimed",
      "type": "event"
    },
    {
      "anonymous": false,
      "inputs": [
        {
          "indexed": false,
          "internalType": "uint256",
          "name": "loanId",
          "type": "uint256"
        }
      ],
      "name": "LoanClaimed",
      "type": "event"
    },
    {
      "anonymous": false,
      "inputs": [
        {
          "indexed": false,
          "internalType": "uint256",
          "name": "loanId",
          "type": "uint256"
        }
      ],
      "name": "LoanRepaid",
      "type": "event"
    },
    {
      "anonymous": false,
      "inputs": [
        {
          "indexed": false,
          "internalType": "uint256",
          "name": "loanId",
          "type": "uint256"
        },
        {
          "indexed": false,
          "internalType": "address",
          "name": "lender",
          "type": "address"
        },
        {
          "indexed": false,
          "internalType": "address",
          "name": "borrower",
          "type": "address"
        },
        {
          "indexed": false,
          "internalType": "address",
          "name": "borrowerSecondary",
          "type": "address"
        }
      ],
      "name": "LoanStarted",
      "type": "event"
    },
    {
      "anonymous": false,
      "inputs": [
        {
          "indexed": false,
          "internalType": "address",
          "name": "account",
          "type": "address"
        }
      ],
      "name": "Paused",
      "type": "event"
    },
    {
      "anonymous": false,
      "inputs": [
        {
          "indexed": false,
          "internalType": "uint256",
          "name": "loanId",
          "type": "uint256"
        }
      ],
      "name": "RentRepaid",
      "type": "event"
    },
    {
      "anonymous": false,
      "inputs": [
        {
          "indexed": false,
          "internalType": "uint256",
          "name": "loanId",
          "type": "uint256"
        }
      ],
      "name": "RentalAssetClaimed",
      "type": "event"
    },
    {
      "anonymous": false,
      "inputs": [
        {
          "indexed": false,
          "internalType": "uint256",
          "name": "loanId",
          "type": "uint256"
        },
        {
          "indexed": false,
          "internalType": "address",
          "name": "lender",
          "type": "address"
        },
        {
          "indexed": false,
          "internalType": "address",
          "name": "borrower",
          "type": "address"
        },
        {
          "indexed": false,
          "internalType": "address",
          "name": "borrowerSecondary",
          "type": "address"
        }
      ],
      "name": "RentalStarted",
      "type": "event"
    },
    {
      "anonymous": false,
      "inputs": [
        {
          "indexed": true,
          "internalType": "bytes32",
          "name": "role",
          "type": "bytes32"
        },
        {
          "indexed": true,
          "internalType": "bytes32",
          "name": "previousAdminRole",
          "type": "bytes32"
        },
        {
          "indexed": true,
          "internalType": "bytes32",
          "name": "newAdminRole",
          "type": "bytes32"
        }
      ],
      "name": "RoleAdminChanged",
      "type": "event"
    },
    {
      "anonymous": false,
      "inputs": [
        {
          "indexed": true,
          "internalType": "bytes32",
          "name": "role",
          "type": "bytes32"
        },
        {
          "indexed": true,
          "internalType": "address",
          "name": "account",
          "type": "address"
        },
        {
          "indexed": true,
          "internalType": "address",
          "name": "sender",
          "type": "address"
        }
      ],
      "name": "RoleGranted",
      "type": "event"
    },
    {
      "anonymous": false,
      "inputs": [
        {
          "indexed": true,
          "internalType": "bytes32",
          "name": "role",
          "type": "bytes32"
        },
        {
          "indexed": true,
          "internalType": "address",
          "name": "account",
          "type": "address"
        },
        {
          "indexed": true,
          "internalType": "address",
          "name": "sender",
          "type": "address"
        }
      ],
      "name": "RoleRevoked",
      "type": "event"
    },
    {
      "anonymous": false,
      "inputs": [
        {
          "indexed": false,
          "internalType": "address",
          "name": "account",
          "type": "address"
        }
      ],
      "name": "Unpaused",
      "type": "event"
    },
    {
      "anonymous": false,
      "inputs": [
        {
          "indexed": false,
          "internalType": "uint256",
          "name": "installment",
          "type": "uint256"
        },
        {
          "indexed": false,
          "internalType": "uint256",
          "name": "loanId",
          "type": "uint256"
        },
        {
          "indexed": false,
          "internalType": "uint256",
          "name": "index",
          "type": "uint256"
        }
      ],
      "name": "installmentRepaid",
      "type": "event"
    },
    {
      "anonymous": false,
      "inputs": [
        {
          "indexed": false,
          "internalType": "uint256",
          "name": "installment",
          "type": "uint256"
        },
        {
          "indexed": false,
          "internalType": "uint256",
          "name": "loanId",
          "type": "uint256"
        },
        {
          "indexed": false,
          "internalType": "uint256",
          "name": "index",
          "type": "uint256"
        }
      ],
      "name": "rentalInstallmentRepaid",
      "type": "event"
    },
    {
      "inputs": [],
      "name": "DEFAULT_ADMIN_ROLE",
      "outputs": [
        {
          "internalType": "bytes32",
          "name": "",
          "type": "bytes32"
        }
      ],
      "stateMutability": "view",
      "type": "function"
    },
    {
      "inputs": [],
      "name": "FEE_CLAIMER_ROLE",
      "outputs": [
        {
          "internalType": "bytes32",
          "name": "",
          "type": "bytes32"
        }
      ],
      "stateMutability": "view",
      "type": "function"
    },
    {
      "inputs": [],
      "name": "ORIGINATOR_ROLE",
      "outputs": [
        {
          "internalType": "bytes32",
          "name": "",
          "type": "bytes32"
        }
      ],
      "stateMutability": "view",
      "type": "function"
    },
    {
      "inputs": [],
      "name": "REPAYER_ROLE",
      "outputs": [
        {
          "internalType": "bytes32",
          "name": "",
          "type": "bytes32"
        }
      ],
      "stateMutability": "view",
      "type": "function"
    },
    {
      "inputs": [
        {
          "internalType": "address",
          "name": "assetAddress",
          "type": "address"
        },
        {
          "internalType": "uint256",
          "name": "token_id",
          "type": "uint256"
        }
      ],
      "name": "checkForNFTsPayLaterLoan",
      "outputs": [
        {
          "internalType": "bool",
          "name": "",
          "type": "bool"
        }
      ],
      "stateMutability": "view",
      "type": "function"
    },
    {
      "inputs": [
        {
          "internalType": "address",
          "name": "assetAddress",
          "type": "address"
        },
        {
          "internalType": "uint256",
          "name": "token_id",
          "type": "uint256"
        }
      ],
      "name": "checkForNFTsUnderRental",
      "outputs": [
        {
          "internalType": "bool",
          "name": "",
          "type": "bool"
        }
      ],
      "stateMutability": "view",
      "type": "function"
    },
    {
      "inputs": [
        {
          "internalType": "uint256",
          "name": "loanId",
          "type": "uint256"
        }
      ],
      "name": "claim",
      "outputs": [],
      "stateMutability": "nonpayable",
      "type": "function"
    },
    {
      "inputs": [
        {
          "internalType": "contract IERC20",
          "name": "token",
          "type": "address"
        }
      ],
      "name": "claimFees",
      "outputs": [],
      "stateMutability": "nonpayable",
      "type": "function"
    },
    {
      "inputs": [
        {
          "internalType": "uint256",
          "name": "loanId",
          "type": "uint256"
        }
      ],
      "name": "claimRentalAsset",
      "outputs": [],
      "stateMutability": "nonpayable",
      "type": "function"
    },
    {
      "inputs": [
        {
          "components": [
            {
              "internalType": "uint256",
              "name": "durationSecs",
              "type": "uint256"
            },
            {
              "internalType": "uint256",
              "name": "principal",
              "type": "uint256"
            },
            {
              "internalType": "uint256",
              "name": "interest",
              "type": "uint256"
            },
            {
              "internalType": "uint256",
              "name": "collateralTokenId",
              "type": "uint256"
            },
            {
              "internalType": "address",
              "name": "payableCurrency",
              "type": "address"
            },
            {
              "internalType": "uint256",
              "name": "parts",
              "type": "uint256"
            },
            {
              "internalType": "uint256",
              "name": "partduration",
              "type": "uint256"
            }
          ],
          "internalType": "struct PayLaterLoanLibrary.LoanTerms",
          "name": "loanTerms",
          "type": "tuple"
        },
        {
          "internalType": "address",
          "name": "borrowerPrimaryAddress",
          "type": "address"
        },
        {
          "internalType": "address",
          "name": "borrowerSecondaryAddress",
          "type": "address"
        },
        {
          "internalType": "address",
          "name": "lenderPrimaryAddress",
          "type": "address"
        },
        {
          "internalType": "uint256",
          "name": "tokenType",
          "type": "uint256"
        },
        {
          "internalType": "address",
          "name": "tokenAddress",
          "type": "address"
        }
      ],
      "name": "createPayLaterPurchase",
      "outputs": [
        {
          "internalType": "uint256",
          "name": "payLaterLoanId",
          "type": "uint256"
        }
      ],
      "stateMutability": "nonpayable",
      "type": "function"
    },
    {
      "inputs": [
        {
          "components": [
            {
              "internalType": "uint256",
              "name": "durationSecs",
              "type": "uint256"
            },
            {
              "internalType": "uint256",
              "name": "principal",
              "type": "uint256"
            },
            {
              "internalType": "uint256",
              "name": "collateralTokenId",
              "type": "uint256"
            },
            {
              "internalType": "address",
              "name": "payableCurrency",
              "type": "address"
            },
            {
              "internalType": "uint256",
              "name": "parts",
              "type": "uint256"
            },
            {
              "internalType": "uint256",
              "name": "partduration",
              "type": "uint256"
            }
          ],
          "internalType": "struct RentalLibrary.RentalTerms",
          "name": "rentalTerms",
          "type": "tuple"
        },
        {
          "internalType": "address",
          "name": "borrowerPrimaryAddress",
          "type": "address"
        },
        {
          "internalType": "address",
          "name": "borrowerSecondaryAddress",
          "type": "address"
        },
        {
          "internalType": "address",
          "name": "lenderPrimaryAddress",
          "type": "address"
        },
        {
          "internalType": "uint256",
          "name": "tokenType",
          "type": "uint256"
        },
        {
          "internalType": "address",
          "name": "tokenAddress",
          "type": "address"
        },
        {
          "internalType": "uint256",
          "name": "rentalType",
          "type": "uint256"
        }
      ],
      "name": "createRentalRequest",
      "outputs": [
        {
          "internalType": "uint256",
          "name": "rentalLoanId",
          "type": "uint256"
        }
      ],
      "stateMutability": "nonpayable",
      "type": "function"
    },
    {
      "inputs": [],
      "name": "feeController",
      "outputs": [
        {
          "internalType": "contract IPayLaterFeeController",
          "name": "",
          "type": "address"
        }
      ],
      "stateMutability": "view",
      "type": "function"
    },
    {
      "inputs": [
        {
          "internalType": "uint256",
          "name": "loanId",
          "type": "uint256"
        }
      ],
      "name": "getFirstInstallmentOfPayLaterPurchase",
      "outputs": [
        {
          "internalType": "uint256",
          "name": "",
          "type": "uint256"
        }
      ],
      "stateMutability": "view",
      "type": "function"
    },
    {
      "inputs": [
        {
          "internalType": "uint256",
          "name": "loanId",
          "type": "uint256"
        }
      ],
      "name": "getFirstInstallmentOfRentalPurchase",
      "outputs": [
        {
          "internalType": "uint256",
          "name": "",
          "type": "uint256"
        }
      ],
      "stateMutability": "view",
      "type": "function"
    },
    {
      "inputs": [
        {
          "internalType": "uint256",
          "name": "amount",
          "type": "uint256"
        },
        {
          "internalType": "uint256",
          "name": "parts",
          "type": "uint256"
        },
        {
          "internalType": "uint256",
          "name": "interest",
          "type": "uint256"
        }
      ],
      "name": "getFirstInstallmentWithoutLoan",
      "outputs": [
        {
          "internalType": "uint256",
          "name": "",
          "type": "uint256"
        }
      ],
      "stateMutability": "view",
      "type": "function"
    },
    {
      "inputs": [
        {
          "internalType": "uint256",
          "name": "amount",
          "type": "uint256"
        },
        {
          "internalType": "uint256",
          "name": "parts",
          "type": "uint256"
        }
      ],
      "name": "getFirstRentalInstallmentWithoutLoan",
      "outputs": [
        {
          "internalType": "uint256",
          "name": "",
          "type": "uint256"
        }
      ],
      "stateMutability": "view",
      "type": "function"
    },
    {
      "inputs": [
        {
          "internalType": "uint256",
          "name": "loanId",
          "type": "uint256"
        }
      ],
      "name": "getInstallmentOfPayLaterPurchase",
      "outputs": [
        {
          "internalType": "uint256",
          "name": "",
          "type": "uint256"
        },
        {
          "internalType": "uint256",
          "name": "",
          "type": "uint256"
        }
      ],
      "stateMutability": "view",
      "type": "function"
    },
    {
      "inputs": [
        {
          "internalType": "uint256",
          "name": "loanId",
          "type": "uint256"
        }
      ],
      "name": "getInstallmentOfRentalPurchase",
      "outputs": [
        {
          "internalType": "uint256",
          "name": "",
          "type": "uint256"
        },
        {
          "internalType": "uint256",
          "name": "",
          "type": "uint256"
        }
      ],
      "stateMutability": "view",
      "type": "function"
    },
    {
      "inputs": [
        {
          "internalType": "uint256",
          "name": "loanId",
          "type": "uint256"
        }
      ],
      "name": "getLoan",
      "outputs": [
        {
          "components": [
            {
              "internalType": "address",
              "name": "borrowerPrimaryWalletAddress",
              "type": "address"
            },
            {
              "internalType": "address",
              "name": "borrowerSecondaryWalletAddress",
              "type": "address"
            },
            {
              "internalType": "address",
              "name": "lenderPrimaryWalletAddress",
              "type": "address"
            },
            {
              "components": [
                {
                  "internalType": "uint256",
                  "name": "durationSecs",
                  "type": "uint256"
                },
                {
                  "internalType": "uint256",
                  "name": "principal",
                  "type": "uint256"
                },
                {
                  "internalType": "uint256",
                  "name": "interest",
                  "type": "uint256"
                },
                {
                  "internalType": "uint256",
                  "name": "collateralTokenId",
                  "type": "uint256"
                },
                {
                  "internalType": "address",
                  "name": "payableCurrency",
                  "type": "address"
                },
                {
                  "internalType": "uint256",
                  "name": "parts",
                  "type": "uint256"
                },
                {
                  "internalType": "uint256",
                  "name": "partduration",
                  "type": "uint256"
                }
              ],
              "internalType": "struct PayLaterLoanLibrary.LoanTerms",
              "name": "terms",
              "type": "tuple"
            },
            {
              "internalType": "enum PayLaterLoanLibrary.LoanState",
              "name": "state",
              "type": "uint8"
            },
            {
              "internalType": "uint256",
              "name": "dueDate",
              "type": "uint256"
            },
            {
              "internalType": "address",
              "name": "assetAddress",
              "type": "address"
            },
            {
              "internalType": "uint256",
              "name": "tokenType",
              "type": "uint256"
            }
          ],
          "internalType": "struct PayLaterLoanLibrary.LoanData",
          "name": "loanData",
          "type": "tuple"
        }
      ],
      "stateMutability": "view",
      "type": "function"
    },
    {
      "inputs": [
        {
          "internalType": "uint256",
          "name": "loanId",
          "type": "uint256"
        }
      ],
      "name": "getRental",
      "outputs": [
        {
          "components": [
            {
              "internalType": "address",
              "name": "borrowerPrimaryWalletAddress",
              "type": "address"
            },
            {
              "internalType": "address",
              "name": "borrowerSecondaryWalletAddress",
              "type": "address"
            },
            {
              "internalType": "address",
              "name": "lenderPrimaryWalletAddress",
              "type": "address"
            },
            {
              "components": [
                {
                  "internalType": "uint256",
                  "name": "durationSecs",
                  "type": "uint256"
                },
                {
                  "internalType": "uint256",
                  "name": "principal",
                  "type": "uint256"
                },
                {
                  "internalType": "uint256",
                  "name": "collateralTokenId",
                  "type": "uint256"
                },
                {
                  "internalType": "address",
                  "name": "payableCurrency",
                  "type": "address"
                },
                {
                  "internalType": "uint256",
                  "name": "parts",
                  "type": "uint256"
                },
                {
                  "internalType": "uint256",
                  "name": "partduration",
                  "type": "uint256"
                }
              ],
              "internalType": "struct RentalLibrary.RentalTerms",
              "name": "terms",
              "type": "tuple"
            },
            {
              "internalType": "enum RentalLibrary.LoanState",
              "name": "state",
              "type": "uint8"
            },
            {
              "internalType": "uint256",
              "name": "dueDate",
              "type": "uint256"
            },
            {
              "internalType": "address",
              "name": "assetAddress",
              "type": "address"
            },
            {
              "internalType": "uint256",
              "name": "tokenType",
              "type": "uint256"
            },
            {
              "internalType": "uint256",
              "name": "rentalType",
              "type": "uint256"
            }
          ],
          "internalType": "struct RentalLibrary.RentalData",
          "name": "loanData",
          "type": "tuple"
        }
      ],
      "stateMutability": "view",
      "type": "function"
    },
    {
      "inputs": [
        {
          "internalType": "bytes32",
          "name": "role",
          "type": "bytes32"
        }
      ],
      "name": "getRoleAdmin",
      "outputs": [
        {
          "internalType": "bytes32",
          "name": "",
          "type": "bytes32"
        }
      ],
      "stateMutability": "view",
      "type": "function"
    },
    {
      "inputs": [
        {
          "internalType": "bytes32",
          "name": "role",
          "type": "bytes32"
        },
        {
          "internalType": "address",
          "name": "account",
          "type": "address"
        }
      ],
      "name": "grantRole",
      "outputs": [],
      "stateMutability": "nonpayable",
      "type": "function"
    },
    {
      "inputs": [
        {
          "internalType": "bytes32",
          "name": "role",
          "type": "bytes32"
        },
        {
          "internalType": "address",
          "name": "account",
          "type": "address"
        }
      ],
      "name": "hasRole",
      "outputs": [
        {
          "internalType": "bool",
          "name": "",
          "type": "bool"
        }
      ],
      "stateMutability": "view",
      "type": "function"
    },
    {
      "inputs": [],
      "name": "pause",
      "outputs": [],
      "stateMutability": "nonpayable",
      "type": "function"
    },
    {
      "inputs": [],
      "name": "paused",
      "outputs": [
        {
          "internalType": "bool",
          "name": "",
          "type": "bool"
        }
      ],
      "stateMutability": "view",
      "type": "function"
    },
    {
      "inputs": [
        {
          "internalType": "bytes32",
          "name": "role",
          "type": "bytes32"
        },
        {
          "internalType": "address",
          "name": "account",
          "type": "address"
        }
      ],
      "name": "renounceRole",
      "outputs": [],
      "stateMutability": "nonpayable",
      "type": "function"
    },
    {
      "inputs": [
        {
          "internalType": "uint256",
          "name": "loanId",
          "type": "uint256"
        },
        {
          "internalType": "uint256",
          "name": "installmentAmount",
          "type": "uint256"
        },
        {
          "internalType": "uint256",
          "name": "index",
          "type": "uint256"
        }
      ],
      "name": "repay",
      "outputs": [
        {
          "internalType": "bool",
          "name": "",
          "type": "bool"
        }
      ],
      "stateMutability": "payable",
      "type": "function"
    },
    {
      "inputs": [
        {
          "internalType": "uint256",
          "name": "loanId",
          "type": "uint256"
        },
        {
          "internalType": "uint256",
          "name": "installmentAmount",
          "type": "uint256"
        },
        {
          "internalType": "uint256",
          "name": "index",
          "type": "uint256"
        }
      ],
      "name": "repayRent",
      "outputs": [
        {
          "internalType": "bool",
          "name": "",
          "type": "bool"
        }
      ],
      "stateMutability": "nonpayable",
      "type": "function"
    },
    {
      "inputs": [
        {
          "internalType": "bytes32",
          "name": "role",
          "type": "bytes32"
        },
        {
          "internalType": "address",
          "name": "account",
          "type": "address"
        }
      ],
      "name": "revokeRole",
      "outputs": [],
      "stateMutability": "nonpayable",
      "type": "function"
    },
    {
      "inputs": [
        {
          "internalType": "uint256",
          "name": "loanId",
          "type": "uint256"
        }
      ],
      "name": "startPayLaterPurchase",
      "outputs": [],
      "stateMutability": "payable",
      "type": "function"
    },
    {
      "inputs": [
        {
          "internalType": "uint256",
          "name": "loanId",
          "type": "uint256"
        }
      ],
      "name": "startRentalPurchase",
      "outputs": [],
      "stateMutability": "nonpayable",
      "type": "function"
    },
    {
      "inputs": [
        {
          "internalType": "bytes4",
          "name": "interfaceId",
          "type": "bytes4"
        }
      ],
      "name": "supportsInterface",
      "outputs": [
        {
          "internalType": "bool",
          "name": "",
          "type": "bool"
        }
      ],
      "stateMutability": "view",
      "type": "function"
    },
    {
      "inputs": [],
      "name": "unpause",
      "outputs": [],
      "stateMutability": "nonpayable",
      "type": "function"
    }
  ],
  "bytecode": "0x60806040523480156200001157600080fd5b506040516200452f3803806200452f8339810160408190526200003491620001d6565b6001805460ff191690556200004b600033620000d2565b620000666000805160206200450f83398151915233620000d2565b620000816000805160206200450f83398151915280620000e2565b600c80546001600160a01b0319166001600160a01b038316179055620000b460026200012d602090811b62002fbf17901c565b620000cb60036200012d60201b62002fbf1760201c565b5062000208565b620000de828262000136565b5050565b600082815260208190526040808220600101805490849055905190918391839186917fbd79b86ffe0ab8e8776151514217cd7cacd52c909f66475c3af44e129f0b00ff9190a4505050565b80546001019055565b6000828152602081815260408083206001600160a01b038516845290915290205460ff16620000de576000828152602081815260408083206001600160a01b03851684529091529020805460ff19166001179055620001923390565b6001600160a01b0316816001600160a01b0316837f2f8788117e7eff1d82e926ec794901d17c78024a50270940304540a733656f0d60405160405180910390a45050565b600060208284031215620001e957600080fd5b81516001600160a01b03811681146200020157600080fd5b9392505050565b6142f780620002186000396000f3fe6080604052600436106101ae5760003560e01c80637199bb28116100ed578063a125142b11610090578063a125142b14610512578063a217fddf14610534578063b995854114610549578063bc0eb66c14610569578063d547741f146105af578063d589c138146105cf578063e2684747146105ef578063f93554ae14610611578063fa6c15a31461064557600080fd5b80637199bb28146104045780637410154d146104245780638456cb5914610444578063895a7485146104595780638cbd7d2a1461046c57806391d148541461048c5780639b3b717d146104ac5780639dc16e58146104f257600080fd5b806344f8d4461161015557806344f8d446146102f2578063504006ca146103055780635194bef714610332578063561557fa146103525780635c975abb14610372578063652bd29e1461038a5780636999b377146103b75780636fb06252146103e457600080fd5b806301ffc9a7146101b357806315a0ea6a146101e8578063248a9ca31461020a5780632f2ff15d1461024857806336568abe14610268578063379607f5146102885780633bc2b3bd146102a85780633f4ba83a146102dd575b600080fd5b3480156101bf57600080fd5b506101d36101ce366004613a15565b610665565b60405190151581526020015b60405180910390f35b3480156101f457600080fd5b50610208610203366004613a54565b61069c565b005b34801561021657600080fd5b5061023a610225366004613a71565b60009081526020819052604090206001015490565b6040519081526020016101df565b34801561025457600080fd5b50610208610263366004613a8a565b61078c565b34801561027457600080fd5b50610208610283366004613a8a565b6107b6565b34801561029457600080fd5b506102086102a3366004613a71565b610839565b3480156102b457600080fd5b506102c86102c3366004613a71565b610bb2565b604080519283526020830191909152016101df565b3480156102e957600080fd5b50610208610d28565b610208610300366004613a71565b610d3e565b34801561031157600080fd5b50610325610320366004613a71565b6112e7565b6040516101df9190613af2565b34801561033e57600080fd5b506102c861034d366004613a71565b6113f1565b34801561035e57600080fd5b5061023a61036d366004613a71565b611558565b34801561037e57600080fd5b5060015460ff166101d3565b34801561039657600080fd5b506103aa6103a5366004613a71565b6115b0565b6040516101df9190613bbc565b3480156103c357600080fd5b50600c546103d7906001600160a01b031681565b6040516101df9190613ca1565b3480156103f057600080fd5b5061023a6103ff366004613cb5565b6116b7565b34801561041057600080fd5b5061023a61041f366004613d39565b611ae2565b34801561043057600080fd5b5061020861043f366004613a71565b611f03565b34801561045057600080fd5b506102086123ae565b6101d3610467366004613dc8565b6123c1565b34801561047857600080fd5b5061023a610487366004613df4565b61278a565b34801561049857600080fd5b506101d36104a7366004613a8a565b61279d565b3480156104b857600080fd5b506101d36104c7366004613e16565b6001600160a01b03919091166000908152600b60209081526040808320938352929052205460ff1690565b3480156104fe57600080fd5b5061023a61050d366004613a71565b6127c6565b34801561051e57600080fd5b5061023a6000805160206142a283398151915281565b34801561054057600080fd5b5061023a600081565b34801561055557600080fd5b50610208610564366004613a71565b61281e565b34801561057557600080fd5b506101d3610584366004613e16565b6001600160a01b03919091166000908152600760209081526040808320938352929052205460ff1690565b3480156105bb57600080fd5b506102086105ca366004613a8a565b612c3f565b3480156105db57600080fd5b5061023a6105ea366004613dc8565b612c64565b3480156105fb57600080fd5b5061023a60008051602061428283398151915281565b34801561061d57600080fd5b5061023a7f8dd046eb6fe22791cf064df41dbfc76ef240a563550f519aac88255bd8c2d3bb81565b34801561065157600080fd5b506101d3610660366004613dc8565b612c79565b60006001600160e01b03198216637965db0b60e01b148061069657506301ffc9a760e01b6001600160e01b03198316145b92915050565b7f8dd046eb6fe22791cf064df41dbfc76ef240a563550f519aac88255bd8c2d3bb6106c681612fc8565b6040516370a0823160e01b81526000906001600160a01b038416906370a08231906106f5903090600401613ca1565b602060405180830381865afa158015610712573d6000803e3d6000fd5b505050506040513d601f19601f820116820180604052508101906107369190613e42565b905061074c6001600160a01b0384163383612fd2565b7ffe3464cd748424446c37877c28ce5b700222c5bc9f90d908afcc4e5cb22707ff83338360405161077f93929190613e5b565b60405180910390a1505050565b6000828152602081905260409020600101546107a781612fc8565b6107b18383613035565b505050565b6001600160a01b038116331461082b5760405162461bcd60e51b815260206004820152602f60248201527f416363657373436f6e74726f6c3a2063616e206f6e6c792072656e6f756e636560448201526e103937b632b9903337b91039b2b63360891b60648201526084015b60405180910390fd5b61083582826130b9565b5050565b61084161311e565b60008051602061428283398151915261085981612fc8565b600082815260046020818152604080842081516101008101835281546001600160a01b03908116825260018301548116828601526002830154811682850152835160e08101855260038401548152838701549581019590955260058301549385019390935260068201546060858101919091526007830154909316608080860191909152600883015460a0860152600983015460c086015292810193909352600a810154929390929184019160ff169081111561091857610918613aba565b600481111561092957610929613aba565b8152600b8201546020820152600c8201546001600160a01b03166040820152600d90910154606090910152905060028160800151600481111561096e5761096e613aba565b146109c75760405162461bcd60e51b815260206004820152602360248201527f4c6f616e436f72653a3a636c61696d3a20496e76616c6964206c6f616e20737460448201526261746560e81b6064820152608401610822565b428160a0015110610a245760405162461bcd60e51b815260206004820152602160248201527f4c6f616e436f72653a3a636c61696d3a204c6f616e206e6f74206578706972656044820152601960fa1b6064820152608401610822565b60008381526004602081905260408220600a01805460ff1916909117905560e08201519003610ac8578060c001516001600160a01b03166323b872dd826020015183604001518460600151606001516040518463ffffffff1660e01b8152600401610a9193929190613e5b565b600060405180830381600087803b158015610aab57600080fd5b505af1158015610abf573d6000803e3d6000fd5b50505050610b4e565b8060e00151600103610b4e578060c001516001600160a01b031663f242432a8260200151836040015184606001516060015160016040518563ffffffff1660e01b8152600401610b1b9493929190613e7f565b600060405180830381600087803b158015610b3557600080fd5b505af1158015610b49573d6000803e3d6000fd5b505050505b60c08101516001600160a01b0316600090815260076020908152604080832060608086015101518452825291829020805460ff1916905590518481527fb15e438728b48d46c9a5505713e60ff50c80559f4523c8f99a246a2069a8684a910161077f565b600081815260046020818152604080842081516101008101835281546001600160a01b03908116825260018301548116828601526002830154811682850152835160e08101855260038401548152838701549581019590955260058301549385019390935260068201546060858101919091526007830154909316608080860191909152600883015460a0860152600983015460c086015292810193909352600a810154859485949384019160ff1690811115610c7157610c71613aba565b6004811115610c8257610c82613aba565b8152600b8201546020820152600c8201546001600160a01b03166040820152600d90910154606090910152905060005b816060015160a00151811015610d1b57600085815260056020908152604080832084845290915281205460ff1615159003610d09576000948552600660209081526040808720838852909152909420549492505050565b80610d1381613ed9565b915050610cb2565b5060009485945092505050565b6000610d3381612fc8565b610d3b613166565b50565b610d4661311e565b6000805160206142a2833981519152610d5e81612fc8565b600082815260046020818152604080842081516101008101835281546001600160a01b03908116825260018301548116828601526002830154811682850152835160e08101855260038401548152838701549581019590955260058301549385019390935260068201546060858101919091526007830154909316608080860191909152600883015460a0860152600983015460c086015292810193909352600a810154929390929184019160ff1690811115610e1d57610e1d613aba565b6004811115610e2e57610e2e613aba565b8152600b8201546020820152600c8201546001600160a01b03166040820152600d909101546060909101529050600181608001516004811115610e7357610e73613aba565b14610ed45760405162461bcd60e51b815260206004820152602b60248201527f5061794c617465724c6f616e436f72653a3a73746172743a20496e76616c696460448201526a206c6f616e20737461746560a81b6064820152608401610822565b6060810151608001516001600160a01b0316610f54576000838152600660209081526040808320838052909152902054341015610f4f5760c08101516060808301510151600085815260066020908152604080832083805290915290819020549051637c93456560e01b815261082293929190600401613ef2565b610f8d565b610f8d3360008581526006602090815260408083208380529091529020546060840151608001516001600160a01b0316919030906131b2565b600083815260056020908152604080832083805282528083208054600160ff19918216811790925587855260049093529220600a0180546002939192169083021790555060405180610100016040528082600001516001600160a01b0316815260200182602001516001600160a01b0316815260200182604001516001600160a01b03168152602001826060015181526020016002600481111561103357611033613aba565b815260a08381015160208084019190915260c0808601516001600160a01b0390811660408087019190915260e088015160609687015260008a8152600480865290829020885181546001600160a01b031990811691861691909117825589870151600180840180548416928816929092179091558a85015160028401805484169188169190911790558a8a0151805160038501559788015183850155938701516005830155978601516006820155608086810151600783018054909a1695169490941790975594840151600887015592909101516009850155840151600a840180549193909260ff199092169190849081111561113257611132613aba565b021790555060a0820151600b82015560c0820151600c820180546001600160a01b0319166001600160a01b0392831617905560e090920151600d9091015560408201516060830151608001519091166111d257806001600160a01b03166108fc6111a4868560600151602001516131d3565b6040518115909202916000818181858888f193505050501580156111cc573d6000803e3d6000fd5b50611205565b61120582604001516111ec868560600151602001516131d3565b6060850151608001516001600160a01b03169190612fd2565b7f6d3544b1b654a9e16b23c9b143b399e673c2cafb5d40a27aa710319bb4e9150d848360400151846000015185602001516040516112469493929190613f13565b60405180910390a1816060015160a001516001036112e1576000848152600460209081526040808320600a01805460ff1990811660031790915560c08601516001600160a01b031684526007835281842060608088015101518552835292819020805490931690925590518581527f9a7851747cd7ffb3fe0a32caf3da48b31f27cebe131267051640f8b72fc4718691015b60405180910390a15b50505050565b6112ef6138b5565b60008281526004602081815260409283902083516101008101855281546001600160a01b03908116825260018301548116828501526002830154811682870152855160e08101875260038401548152838601549481019490945260058301549584019590955260068201546060848101919091526007830154909516608080850191909152600883015460a0850152600983015460c085015294810192909252600a810154919390929084019160ff16908111156113af576113af613aba565b60048111156113c0576113c0613aba565b8152600b8201546020820152600c8201546001600160a01b03166040820152600d9091015460609091015292915050565b600081815260086020818152604080842081516101208101835281546001600160a01b03908116825260018301548116828601526002830154811682850152835160c081018552600384015481526004808501549682019690965260058401549481019490945260068301541660608481019190915260078301546080808601919091529583015460a08501528101929092526009810154859485949084019160ff16908111156114a4576114a4613aba565b60048111156114b5576114b5613aba565b8152600a8201546020820152600b8201546001600160a01b03166040820152600c8201546060820152600d90910154608090910152905060005b816060015160800151811015610d1b57600085815260096020908152604080832084845290915281205460ff1615159003611546576000948552600a60209081526040808720838852909152909420549492505050565b8061155081613ed9565b9150506114ef565b600081815260096020908152604080832083805290915281205460ff16156115925760405162461bcd60e51b815260040161082290613f3a565b506000908152600a6020908152604080832083805290915290205490565b6115b8613965565b60008281526008602081815260409283902083516101208101855281546001600160a01b03908116825260018301548116828501526002830154811682870152855160c081018752600384015481526004808501549582019590955260058401549681019690965260068301541660608681019190915260078301546080808801919091529483015460a08701528101949094526009810154909284019160ff9091169081111561166b5761166b613aba565b600481111561167c5761167c613aba565b8152600a8201546020820152600b8201546001600160a01b03166040820152600c8201546060820152600d9091015460809091015292915050565b60006116c161311e565b6000805160206142a28339815191526116d981612fc8565b873561173b5760405162461bcd60e51b815260206004820152603d602482015260008051602061426283398151915260448201527f6572507572636861736520697320616c726561647920657870697265640000006064820152608401610822565b60008860a00135116117b85760405162461bcd60e51b815260206004820152604c602482015260008051602061426283398151915260448201527f65725075726368617365207061796d656e74206379636c652073686f756c642060648201526b62652061746c65617374203160a01b608482015260a401610822565b60008860c001351161183e5760405162461bcd60e51b8152602060048201526055602482015260008051602061426283398151915260448201527f65725075726368617365206379636c65206475726174696f6e2073686f756c646064820152742062652067726561746572207468616e207a65726f60581b608482015260a401610822565b6002549150611851600280546001019055565b604051806101000160405280886001600160a01b03168152602001876001600160a01b03168152602001866001600160a01b031681526020018980360381019061189b9190613f87565b8152602001600181526020016118b28a3542614021565b81526001600160a01b0385811660208084019190915260409283018890526000868152600480835290849020855181546001600160a01b03199081169186169190911782558684015160018084018054841692881692909217909155878701516002840180548416918816919091179055606080890151805160038601559586015184860155968501516005840155958401516006830155608080850151600784018054909316961695909517905560a0830151600882015560c090920151600983015591840151600a8201805492949193909260ff19169190849081111561199d5761199d613aba565b021790555060a0820151600b82015560c0820151600c820180546001600160a01b0319166001600160a01b0392831617905560e090920151600d909101558316600090815260076020908152604080832060608c013584529091528120805460ff191660011790555b8860a00135811015611ad65780600003611a71576000838152600560209081526040808320848452825291829020805460ff19169055611a5291908b0135908b013560a08c0135613201565b6000848152600660209081526040808320858452909152902055611ac4565b6000838152600560209081526040808320848452825291829020805460ff19169055611aa991908b0135908b013560a08c0135613233565b60008481526006602090815260408083208584529091529020555b80611ace81613ed9565b915050611a06565b50509695505050505050565b6000611aec61311e565b6000805160206142a2833981519152611b0481612fc8565b8835611b625760405162461bcd60e51b815260206004820152603960248201526000805160206142428339815191526044820152781c98da185cd9481a5cc8185b1c9958591e48195e1c1a5c9959603a1b6064820152608401610822565b6000896080013511611bdb5760405162461bcd60e51b8152602060048201526048602482015260008051602061424283398151915260448201527f726368617365207061796d656e74206379636c652073686f756c642062652061606482015267746c65617374203160c01b608482015260a401610822565b60008960a0013511611c5d5760405162461bcd60e51b8152602060048201526051602482015260008051602061424283398151915260448201527f726368617365206379636c65206475726174696f6e2073686f756c642062652060648201527067726561746572207468616e207a65726f60781b608482015260a401610822565b6003549150611c70600380546001019055565b604051806101200160405280896001600160a01b03168152602001886001600160a01b03168152602001876001600160a01b031681526020018a803603810190611cba9190614034565b815260200160018152602001611cd18b3542614021565b81526001600160a01b0380871660208084019190915260408084018a905260609384018890526000878152600880845290829020865181549086166001600160a01b0319918216178255878501516001808401805492891692841692909217909155888501516002840180549189169184169190911790558888015180516003850155958601516004808501919091559486015160058401559685015160068301805491909716911617909455608080840151600786015560a090930151908401559084015160098301805493949193909260ff1990911691908490811115611dbc57611dbc613aba565b021790555060a0820151600a82015560c0820151600b80830180546001600160a01b0319166001600160a01b0393841617905560e0840151600c84015561010090930151600d9092019190915585166000908152602091825260408082208c8201358352909252908120805460ff191660011790555b8960800135811015611ef65780600003611e975760008381526009602090815260408083208484528252909120805460ff19169055611e78908b013560808c013561324c565b6000848152600a60209081526040808320858452909152902055611ee4565b60008381526009602090815260408083208484528252909120805460ff19169055611ec9908b013560808c0135613265565b6000848152600a602090815260408083208584529091529020555b80611eee81613ed9565b915050611e32565b5050979650505050505050565b611f0b61311e565b6000805160206142a2833981519152611f2381612fc8565b600082815260086020818152604080842081516101208101835281546001600160a01b03908116825260018301548116828601526002830154811682850152835160c081018552600384015481526004808501549682019690965260058401549481019490945260068301541660608481019190915260078301546080808601919091529583015460a08501528101929092526009810154919390929084019160ff1690811115611fd657611fd6613aba565b6004811115611fe757611fe7613aba565b8152600a8201546020820152600b8201546001600160a01b03166040820152600c8201546060820152600d90910154608090910152905060018160800151600481111561203657612036613aba565b146120955760405162461bcd60e51b815260206004820152602960248201527f52656e74616c4c6f616e436f72653a3a73746172743a20496e76616c6964206c6044820152686f616e20737461746560b81b6064820152608401610822565b6120cd336000858152600a6020908152604080832083805290915290205460608085015101516001600160a01b0316919030906131b2565b600083815260096020818152604080842084805282528084208054600160ff1991821681179092558886526008909352932090910180546002939192169083021790555060405180610120016040528082600001516001600160a01b0316815260200182602001516001600160a01b0316815260200182604001516001600160a01b03168152602001826060015181526020016002600481111561217357612173613aba565b815260a08084015160208084019190915260c08501516001600160a01b0390811660408086019190915260e087015160608087019190915261010088015160809687015260008a8152600880865290839020885181549086166001600160a01b03199182161782558987015160018084018054928916928416929092179091558a8601516002840180549189169184169190911790558a85015180516003850155978801516004808501919091559588015160058401559387015160068301805491909716911617909455848701516007850155939094015192820192909255928401516009840180549193909260ff1990921691849081111561227957612279613aba565b021790555060a082015181600a015560c082015181600b0160006101000a8154816001600160a01b0302191690836001600160a01b0316021790555060e082015181600c015561010082015181600d015590505060008160200151905061230882604001516122f086856060015160200151613271565b60608086015101516001600160a01b03169190612fd2565b7f011ca4a6d25886ae3b1a13b2a5f1a62ee97926a3e921b0dfa62cde344c40194a848360400151846000015185602001516040516123499493929190613f13565b60405180910390a18160600151608001516001036112e157600084815260086020908152604091829020600901805460ff1916600317905590518581527fdb503d6bba1eb493e5d74fc488e5616674438f6c1ba27b9c7bc2f8fad95f10dd91016112d8565b60006123b981612fc8565b610d3b61329f565b60006000805160206142828339815191526123db81612fc8565b600085815260046020818152604080842081516101008101835281546001600160a01b03908116825260018301548116828601526002830154811682850152835160e08101855260038401548152838701549581019590955260058301549385019390935260068201546060858101919091526007830154909316608080860191909152600883015460a0860152600983015460c086015292810193909352600a810154929390929184019160ff169081111561249a5761249a613aba565b60048111156124ab576124ab613aba565b8152600b8201546020820152600c8201546001600160a01b03166040820152600d9091015460609091015290506002816080015160048111156124f0576124f0613aba565b146125515760405162461bcd60e51b815260206004820152602b60248201527f5061794c617465724c6f616e436f72653a3a72657061793a20496e76616c696460448201526a206c6f616e20737461746560a81b6064820152608401610822565b6060810151608001516001600160a01b031661259f578434101561259a578060c0015181606001516060015186604051637c93456560e01b815260040161082293929190613ef2565b6125bd565b6125bd336060830151608001516001600160a01b03169030886131b2565b600086815260056020908152604080832087845290915290819020805460ff191660011790558101516060820151608001516001600160a01b0316612638576040516001600160a01b0382169087156108fc029088906000818181858888f19350505050158015612632573d6000803e3d6000fd5b50612662565b6126628260400151878460600151608001516001600160a01b0316612fd29092919063ffffffff16565b60005b826060015160a001518110156126f957600088815260056020908152604080832084845290915281205460ff16151590036126e75760408051888152602081018a90529081018790527f55ddfc0b621f22e47bc0054e52f9defa31d612da0db4ba8fdca33e9bc8d83caf9060600160405180910390a160009450505050612782565b806126f181613ed9565b915050612665565b506000878152600460209081526040808320600a01805460ff1990811660031790915560c08601516001600160a01b031684526007835281842060608088015101518552835292819020805490931690925590518881527f9a7851747cd7ffb3fe0a32caf3da48b31f27cebe131267051640f8b72fc47186910160405180910390a16001935050505b509392505050565b6000612796838361324c565b9392505050565b6000918252602082815260408084206001600160a01b0393909316845291905290205460ff1690565b600081815260056020908152604080832083805290915281205460ff16156128005760405162461bcd60e51b815260040161082290613f3a565b50600090815260066020908152604080832083805290915290205490565b61282661311e565b60008051602061428283398151915261283e81612fc8565b600082815260086020818152604080842081516101208101835281546001600160a01b03908116825260018301548116828601526002830154811682850152835160c081018552600384015481526004808501549682019690965260058401549481019490945260068301541660608481019190915260078301546080808601919091529583015460a08501528101929092526009810154919390929084019160ff16908111156128f1576128f1613aba565b600481111561290257612902613aba565b8152600a8201546020820152600b8201546001600160a01b03166040820152600c8201546060820152600d90910154608090910152905060028160800151600481111561295157612951613aba565b1480612972575060038160800151600481111561297057612970613aba565b145b6129d05760405162461bcd60e51b815260206004820152602960248201527f52656e74616c4c6f616e436f72653a3a636c61696d3a20496e76616c6964206c6044820152686f616e20737461746560b81b6064820152608401610822565b42612a56600c60009054906101000a90046001600160a01b03166001600160a01b031663dbd183886040518163ffffffff1660e01b8152600401602060405180830381865afa158015612a27573d6000803e3d6000fd5b505050506040513d601f19601f82011682018060405250810190612a4b9190613e42565b60a0840151906132da565b10612ab35760405162461bcd60e51b815260206004820152602760248201527f52656e74616c4c6f616e436f72653a3a636c61696d3a204c6f616e206e6f7420604482015266195e1c1a5c995960ca1b6064820152608401610822565b6000838152600860205260408120600901805460ff1916600417905560e08201519003612b55578060c001516001600160a01b03166323b872dd826020015183604001518460600151604001516040518463ffffffff1660e01b8152600401612b1e93929190613e5b565b600060405180830381600087803b158015612b3857600080fd5b505af1158015612b4c573d6000803e3d6000fd5b50505050612bdb565b8060e00151600103612bdb578060c001516001600160a01b031663f242432a8260200151836040015184606001516040015160016040518563ffffffff1660e01b8152600401612ba89493929190613e7f565b600060405180830381600087803b158015612bc257600080fd5b505af1158015612bd6573d6000803e3d6000fd5b505050505b60c08101516001600160a01b03166000908152600b6020908152604080832060608501518201518452825291829020805460ff1916905590518481527f1a4fa83fdde21bb01864493114bb3c15100e71161e55af3e3ac402b968ba8af7910161077f565b600082815260208190526040902060010154612c5a81612fc8565b6107b183836130b9565b6000612c71848385613201565b949350505050565b6000600080516020614282833981519152612c9381612fc8565b600085815260086020818152604080842081516101208101835281546001600160a01b03908116825260018301548116828601526002830154811682850152835160c081018552600384015481526004808501549682019690965260058401549481019490945260068301541660608481019190915260078301546080808601919091529583015460a08501528101929092526009810154919390929084019160ff1690811115612d4657612d46613aba565b6004811115612d5757612d57613aba565b8152600a8201546020820152600b8201546001600160a01b03166040820152600c8201546060820152600d909101546080909101529050600281608001516004811115612da657612da6613aba565b14612e055760405162461bcd60e51b815260206004820152602960248201527f52656e74616c4c6f616e436f72653a3a72657061793a20496e76616c6964206c6044820152686f616e20737461746560b81b6064820152608401610822565b600181606001516080015111612e685760405162461bcd60e51b815260206004820152602260248201527f52656e74616c4c6f616e436f72653a3a2052656e7420616c72656164792070616044820152611a5960f21b6064820152608401610822565b612e853360608084015101516001600160a01b03169030886131b2565b600086815260096020908152604080832087845290915290819020805460ff191660011790558101516060808301510151612ecc916001600160a01b039091169087612fd2565b60005b816060015160800151811015612f6257600087815260096020908152604080832084845290915281205460ff1615159003612f505760408051878152602081018990529081018690527fe08576c13cf51a4ea2813b403ef4c7a3fd1d071f2abc249e4d5011aef2848c009060600160405180910390a1600093505050612782565b80612f5a81613ed9565b915050612ecf565b50600086815260086020908152604091829020600901805460ff1916600317905590518781527fdb503d6bba1eb493e5d74fc488e5616674438f6c1ba27b9c7bc2f8fad95f10dd910160405180910390a150600195945050505050565b80546001019055565b610d3b81336132e6565b6040516001600160a01b0383166024820152604481018290526107b190849063a9059cbb60e01b906064015b60408051601f198184030181529190526020810180516001600160e01b03166001600160e01b03199093169290921790915261333f565b61303f828261279d565b610835576000828152602081815260408083206001600160a01b03851684529091529020805460ff191660011790556130753390565b6001600160a01b0316816001600160a01b0316837f2f8788117e7eff1d82e926ec794901d17c78024a50270940304540a733656f0d60405160405180910390a45050565b6130c3828261279d565b15610835576000828152602081815260408083206001600160a01b0385168085529252808320805460ff1916905551339285917ff6391f5c32d9c69d2a47ea670b442974b53935d1edc7fd64eb21e047a839171b9190a45050565b60015460ff16156131645760405162461bcd60e51b815260206004820152601060248201526f14185d5cd8589b194e881c185d5cd95960821b6044820152606401610822565b565b61316e613411565b6001805460ff191690557f5db9ee0a495bf2e6ff9c91a7834c1ba4fdd244a5e8aa4e537bd38aeae4b073aa335b6040516131a89190613ca1565b60405180910390a1565b6112e1846323b872dd60e01b858585604051602401612ffe93929190613e5b565b60006127966131e18361345a565b6000858152600660209081526040808320838052909152902054906134e2565b60008061322a61321b8461321588886134ee565b90613509565b6132248761345a565b906132da565b95945050505050565b60008061324085856134ee565b905061322a8184613509565b600080612c7161325c8585613509565b61322486613515565b60006127968383613509565b600061279661327f83613515565b6000858152600a60209081526040808320838052909152902054906134e2565b6132a761311e565b6001805460ff1916811790557f62e78cea01bee320cd4e420270b5ea74000d11b0c9f74754ebdbfc544b05a2583361319b565b60006127968284614021565b6132f0828261279d565b610835576132fd81613573565b613308836020613585565b6040516020016133199291906140e8565b60408051601f198184030181529082905262461bcd60e51b825261082291600401614157565b6000613394826040518060400160405280602081526020017f5361666545524332303a206c6f772d6c6576656c2063616c6c206661696c6564815250856001600160a01b03166137219092919063ffffffff16565b8051909150156107b157808060200190518101906133b2919061418a565b6107b15760405162461bcd60e51b815260206004820152602a60248201527f5361666545524332303a204552433230206f7065726174696f6e20646964206e6044820152691bdd081cdd58d8d9595960b21b6064820152608401610822565b60015460ff166131645760405162461bcd60e51b815260206004820152601460248201527314185d5cd8589b194e881b9bdd081c185d5cd95960621b6044820152606401610822565b60006106966064613215600c60009054906101000a90046001600160a01b03166001600160a01b031663fc2e39a66040518163ffffffff1660e01b8152600401602060405180830381865afa1580156134b7573d6000803e3d6000fd5b505050506040513d601f19601f820116820180604052508101906134db9190613e42565b8590613730565b600061279682846141ac565b600061279661350260646132158686613730565b84906132da565b600061279682846141bf565b6000610696612710613215600c60009054906101000a90046001600160a01b03166001600160a01b031663af7cdec96040518163ffffffff1660e01b8152600401602060405180830381865afa1580156134b7573d6000803e3d6000fd5b60606106966001600160a01b03831660145b606060006135948360026141e1565b61359f906002614021565b67ffffffffffffffff8111156135b7576135b7613f71565b6040519080825280601f01601f1916602001820160405280156135e1576020820181803683370190505b509050600360fc1b816000815181106135fc576135fc6141f8565b60200101906001600160f81b031916908160001a905350600f60fb1b8160018151811061362b5761362b6141f8565b60200101906001600160f81b031916908160001a905350600061364f8460026141e1565b61365a906001614021565b90505b60018111156136d2576f181899199a1a9b1b9c1cb0b131b232b360811b85600f166010811061368e5761368e6141f8565b1a60f81b8282815181106136a4576136a46141f8565b60200101906001600160f81b031916908160001a90535060049490941c936136cb8161420e565b905061365d565b5083156127965760405162461bcd60e51b815260206004820181905260248201527f537472696e67733a20686578206c656e67746820696e73756666696369656e746044820152606401610822565b6060612c71848460008561373c565b600061279682846141e1565b60608247101561379d5760405162461bcd60e51b815260206004820152602660248201527f416464726573733a20696e73756666696369656e742062616c616e636520666f6044820152651c8818d85b1b60d21b6064820152608401610822565b600080866001600160a01b031685876040516137b99190614225565b60006040518083038185875af1925050503d80600081146137f6576040519150601f19603f3d011682016040523d82523d6000602084013e6137fb565b606091505b509150915061380c87838387613817565b979650505050505050565b6060831561388657825160000361387f576001600160a01b0385163b61387f5760405162461bcd60e51b815260206004820152601d60248201527f416464726573733a2063616c6c20746f206e6f6e2d636f6e74726163740000006044820152606401610822565b5081612c71565b612c71838381511561389b5781518083602001fd5b8060405162461bcd60e51b81526004016108229190614157565b60405180610100016040528060006001600160a01b0316815260200160006001600160a01b0316815260200160006001600160a01b0316815260200161393a6040518060e001604052806000815260200160008152602001600081526020016000815260200160006001600160a01b0316815260200160008152602001600081525090565b8152602001600081526020016000815260200160006001600160a01b03168152602001600081525090565b60405180610120016040528060006001600160a01b0316815260200160006001600160a01b0316815260200160006001600160a01b031681526020016139e36040518060c0016040528060008152602001600081526020016000815260200160006001600160a01b0316815260200160008152602001600081525090565b8152602001600081526020016000815260200160006001600160a01b0316815260200160008152602001600081525090565b600060208284031215613a2757600080fd5b81356001600160e01b03198116811461279657600080fd5b6001600160a01b0381168114610d3b57600080fd5b600060208284031215613a6657600080fd5b813561279681613a3f565b600060208284031215613a8357600080fd5b5035919050565b60008060408385031215613a9d57600080fd5b823591506020830135613aaf81613a3f565b809150509250929050565b634e487b7160e01b600052602160045260246000fd5b60058110613aee57634e487b7160e01b600052602160045260246000fd5b9052565b81516001600160a01b039081168252602080840151821690830152604080840151918216908301526101c0820190506060830151613b786060840182805182526020808201519083015260408082015190830152606080820151908301526080808201516001600160a01b03169083015260a0808201519083015260c090810151910152565b506080830151613b8c610140840182613ad0565b5060a083015161016083015260c08301516001600160a01b031661018083015260e0909201516101a09091015290565b81516001600160a01b031681526101c081016020830151613be860208401826001600160a01b03169052565b506040830151613c0360408401826001600160a01b03169052565b506060830151613c5160608401828051825260208082015190830152604080820151908301526060808201516001600160a01b0316908301526080808201519083015260a090810151910152565b506080830151613c65610120840182613ad0565b5060a083015161014083015260c08301516001600160a01b031661016083015260e0830151610180830152610100909201516101a09091015290565b6001600160a01b0391909116815260200190565b600080600080600080868803610180811215613cd057600080fd5b60e0811215613cde57600080fd5b5086955060e0870135613cf081613a3f565b9450610100870135613d0181613a3f565b9350610120870135613d1281613a3f565b92506101408701359150610160870135613d2b81613a3f565b809150509295509295509295565b6000806000806000806000878903610180811215613d5657600080fd5b60c0811215613d6457600080fd5b5087965060c0880135613d7681613a3f565b955060e0880135613d8681613a3f565b9450610100880135613d9781613a3f565b93506101208801359250610140880135613db081613a3f565b80925050610160880135905092959891949750929550565b600080600060608486031215613ddd57600080fd5b505081359360208301359350604090920135919050565b60008060408385031215613e0757600080fd5b50508035926020909101359150565b60008060408385031215613e2957600080fd5b8235613e3481613a3f565b946020939093013593505050565b600060208284031215613e5457600080fd5b5051919050565b6001600160a01b039384168152919092166020820152604081019190915260600190565b6001600160a01b0394851681529290931660208301526040820152606081019190915260a0608082018190526003908201526203078360ec1b60c082015260e00190565b634e487b7160e01b600052601160045260246000fd5b600060018201613eeb57613eeb613ec3565b5060010190565b6001600160a01b039390931683526020830191909152604082015260600190565b9384526001600160a01b039283166020850152908216604084015216606082015260800190565b6020808252601e908201527f466972737420496e7374616c6c6d656e7420616c726561647920706169640000604082015260600190565b634e487b7160e01b600052604160045260246000fd5b600060e08284031215613f9957600080fd5b60405160e0810181811067ffffffffffffffff82111715613fca57634e487b7160e01b600052604160045260246000fd5b8060405250823581526020830135602082015260408301356040820152606083013560608201526080830135613fff81613a3f565b608082015260a0838101359082015260c0928301359281019290925250919050565b8082018082111561069657610696613ec3565b600060c0828403121561404657600080fd5b60405160c0810181811067ffffffffffffffff8211171561407757634e487b7160e01b600052604160045260246000fd5b806040525082358152602083013560208201526040830135604082015260608301356140a281613a3f565b60608201526080838101359082015260a0928301359281019290925250919050565b60005b838110156140df5781810151838201526020016140c7565b50506000910152565b76020b1b1b2b9b9a1b7b73a3937b61d1030b1b1b7bab73a1604d1b81526000835161411a8160178501602088016140c4565b7001034b99036b4b9b9b4b733903937b6329607d1b601791840191820152835161414b8160288401602088016140c4565b01602801949350505050565b60208152600082518060208401526141768160408501602087016140c4565b601f01601f19169190910160400192915050565b60006020828403121561419c57600080fd5b8151801515811461279657600080fd5b8181038181111561069657610696613ec3565b6000826141dc57634e487b7160e01b600052601260045260246000fd5b500490565b808202811582820484141761069657610696613ec3565b634e487b7160e01b600052603260045260246000fd5b60008161421d5761421d613ec3565b506000190190565b600082516142378184602087016140c4565b919091019291505056fe52656e74616c4c6f616e436f72653a3a6372656174653a2052656e74616c50755061794c617465724c6f616e436f72653a3a6372656174653a205061794c61749c60024347074fd9de2c1e36003080d22dbc76a41ef87444d21e361bcb39118e59abfac6520ec36a6556b2a4dd949cc40007459bcd5cd2507f1e5cc77b6bc97ea26469706673582212206c9e8e28b82394ce298a6a9ae89034be41e99ff1c6f0e5b0fb24825dfaa3d24964736f6c634300081200338dd046eb6fe22791cf064df41dbfc76ef240a563550f519aac88255bd8c2d3bb",
  "linkReferences": {},
  "deployedLinkReferences": {}
}