{
  "_format": "hh-sol-artifact-1",
  "contractName": "PayLaterFeeController",
  "sourceName": "contracts/FeeController.sol",
  "abi": [
    {
      "inputs": [],
      "stateMutability": "nonpayable",
      "type": "constructor"
    },
    {
      "anonymous": false,
      "inputs": [
        {
          "indexed": true,
          "internalType": "address",
          "name": "previousOwner",
          "type": "address"
        },
        {
          "indexed": true,
          "internalType": "address",
          "name": "newOwner",
          "type": "address"
        }
      ],
      "name": "OwnershipTransferred",
      "type": "event"
    },
    {
      "anonymous": false,
      "inputs": [
        {
          "indexed": true,
          "internalType": "bytes32",
          "name": "role",
          "type": "bytes32"
        },
        {
          "indexed": true,
          "internalType": "bytes32",
          "name": "previousAdminRole",
          "type": "bytes32"
        },
        {
          "indexed": true,
          "internalType": "bytes32",
          "name": "newAdminRole",
          "type": "bytes32"
        }
      ],
      "name": "RoleAdminChanged",
      "type": "event"
    },
    {
      "anonymous": false,
      "inputs": [
        {
          "indexed": true,
          "internalType": "bytes32",
          "name": "role",
          "type": "bytes32"
        },
        {
          "indexed": true,
          "internalType": "address",
          "name": "account",
          "type": "address"
        },
        {
          "indexed": true,
          "internalType": "address",
          "name": "sender",
          "type": "address"
        }
      ],
      "name": "RoleGranted",
      "type": "event"
    },
    {
      "anonymous": false,
      "inputs": [
        {
          "indexed": true,
          "internalType": "bytes32",
          "name": "role",
          "type": "bytes32"
        },
        {
          "indexed": true,
          "internalType": "address",
          "name": "account",
          "type": "address"
        },
        {
          "indexed": true,
          "internalType": "address",
          "name": "sender",
          "type": "address"
        }
      ],
      "name": "RoleRevoked",
      "type": "event"
    },
    {
      "anonymous": false,
      "inputs": [
        {
          "indexed": false,
          "internalType": "uint256",
          "name": "_newFee",
          "type": "uint256"
        }
      ],
      "name": "UpdateOriginationFee",
      "type": "event"
    },
    {
      "anonymous": false,
      "inputs": [
        {
          "indexed": false,
          "internalType": "uint256",
          "name": "_newFee",
          "type": "uint256"
        }
      ],
      "name": "UpdatedGracePeriod",
      "type": "event"
    },
    {
      "anonymous": false,
      "inputs": [
        {
          "indexed": false,
          "internalType": "uint256",
          "name": "_newFee",
          "type": "uint256"
        }
      ],
      "name": "UpdatedRentalFee",
      "type": "event"
    },
    {
      "inputs": [],
      "name": "DEFAULT_ADMIN_ROLE",
      "outputs": [
        {
          "internalType": "bytes32",
          "name": "",
          "type": "bytes32"
        }
      ],
      "stateMutability": "view",
      "type": "function"
    },
    {
      "inputs": [],
      "name": "getGracePeriod",
      "outputs": [
        {
          "internalType": "uint256",
          "name": "",
          "type": "uint256"
        }
      ],
      "stateMutability": "view",
      "type": "function"
    },
    {
      "inputs": [],
      "name": "getOriginationFee",
      "outputs": [
        {
          "internalType": "uint256",
          "name": "",
          "type": "uint256"
        }
      ],
      "stateMutability": "view",
      "type": "function"
    },
    {
      "inputs": [],
      "name": "getRentalFee",
      "outputs": [
        {
          "internalType": "uint256",
          "name": "fee",
          "type": "uint256"
        }
      ],
      "stateMutability": "view",
      "type": "function"
    },
    {
      "inputs": [
        {
          "internalType": "bytes32",
          "name": "role",
          "type": "bytes32"
        }
      ],
      "name": "getRoleAdmin",
      "outputs": [
        {
          "internalType": "bytes32",
          "name": "",
          "type": "bytes32"
        }
      ],
      "stateMutability": "view",
      "type": "function"
    },
    {
      "inputs": [
        {
          "internalType": "bytes32",
          "name": "role",
          "type": "bytes32"
        },
        {
          "internalType": "uint256",
          "name": "index",
          "type": "uint256"
        }
      ],
      "name": "getRoleMember",
      "outputs": [
        {
          "internalType": "address",
          "name": "",
          "type": "address"
        }
      ],
      "stateMutability": "view",
      "type": "function"
    },
    {
      "inputs": [
        {
          "internalType": "bytes32",
          "name": "role",
          "type": "bytes32"
        }
      ],
      "name": "getRoleMemberCount",
      "outputs": [
        {
          "internalType": "uint256",
          "name": "",
          "type": "uint256"
        }
      ],
      "stateMutability": "view",
      "type": "function"
    },
    {
      "inputs": [
        {
          "internalType": "bytes32",
          "name": "role",
          "type": "bytes32"
        },
        {
          "internalType": "address",
          "name": "account",
          "type": "address"
        }
      ],
      "name": "grantRole",
      "outputs": [],
      "stateMutability": "nonpayable",
      "type": "function"
    },
    {
      "inputs": [
        {
          "internalType": "bytes32",
          "name": "role",
          "type": "bytes32"
        },
        {
          "internalType": "address",
          "name": "account",
          "type": "address"
        }
      ],
      "name": "hasRole",
      "outputs": [
        {
          "internalType": "bool",
          "name": "",
          "type": "bool"
        }
      ],
      "stateMutability": "view",
      "type": "function"
    },
    {
      "inputs": [],
      "name": "owner",
      "outputs": [
        {
          "internalType": "address",
          "name": "",
          "type": "address"
        }
      ],
      "stateMutability": "view",
      "type": "function"
    },
    {
      "inputs": [],
      "name": "renounceOwnership",
      "outputs": [],
      "stateMutability": "nonpayable",
      "type": "function"
    },
    {
      "inputs": [
        {
          "internalType": "bytes32",
          "name": "role",
          "type": "bytes32"
        },
        {
          "internalType": "address",
          "name": "account",
          "type": "address"
        }
      ],
      "name": "renounceRole",
      "outputs": [],
      "stateMutability": "nonpayable",
      "type": "function"
    },
    {
      "inputs": [
        {
          "internalType": "bytes32",
          "name": "role",
          "type": "bytes32"
        },
        {
          "internalType": "address",
          "name": "account",
          "type": "address"
        }
      ],
      "name": "revokeRole",
      "outputs": [],
      "stateMutability": "nonpayable",
      "type": "function"
    },
    {
      "inputs": [
        {
          "internalType": "uint256",
          "name": "period",
          "type": "uint256"
        }
      ],
      "name": "setGracePeriod",
      "outputs": [],
      "stateMutability": "nonpayable",
      "type": "function"
    },
    {
      "inputs": [
        {
          "internalType": "uint256",
          "name": "_originationFee",
          "type": "uint256"
        }
      ],
      "name": "setOriginationFee",
      "outputs": [],
      "stateMutability": "nonpayable",
      "type": "function"
    },
    {
      "inputs": [
        {
          "internalType": "uint256",
          "name": "fee",
          "type": "uint256"
        }
      ],
      "name": "setRentalFee",
      "outputs": [],
      "stateMutability": "nonpayable",
      "type": "function"
    },
    {
      "inputs": [
        {
          "internalType": "bytes4",
          "name": "interfaceId",
          "type": "bytes4"
        }
      ],
      "name": "supportsInterface",
      "outputs": [
        {
          "internalType": "bool",
          "name": "",
          "type": "bool"
        }
      ],
      "stateMutability": "view",
      "type": "function"
    },
    {
      "inputs": [
        {
          "internalType": "address",
          "name": "newOwner",
          "type": "address"
        }
      ],
      "name": "transferOwnership",
      "outputs": [],
      "stateMutability": "nonpayable",
      "type": "function"
    }
  ],
  "bytecode": "0x608060405260026003556201518060045560c860055534801561002157600080fd5b5061002b33610030565b610082565b600280546001600160a01b038381166001600160a01b0319831681179093556040519116919082907f8be0079c531659141344cd1fd0a4f28419497f9722a3daafe3b4186f6b6457e090600090a35050565b610d42806100916000396000f3fe608060405234801561001057600080fd5b50600436106100f55760003560e01c806391d148541161009257806391d14854146101e1578063a217fddf146101f4578063af7cdec9146101fc578063ca15c87314610204578063d547741f14610217578063dbd183881461022a578063f2f6596014610232578063f2fde38b14610245578063fc2e39a61461025857600080fd5b806286d904146100fa57806301ffc9a71461010f578063248a9ca3146101375780632f2ff15d1461016857806336568abe1461017b578063715018a61461018e5780637f2006a0146101965780638da5cb5b146101a95780639010d07c146101ce575b600080fd5b61010d610108366004610ad2565b610260565b005b61012261011d366004610aeb565b6102a4565b60405190151581526020015b60405180910390f35b61015a610145366004610ad2565b60009081526020819052604090206001015490565b60405190815260200161012e565b61010d610176366004610b31565b6102cf565b61010d610189366004610b31565b6102f9565b61010d61037c565b61010d6101a4366004610ad2565b610390565b6002546001600160a01b03165b6040516001600160a01b03909116815260200161012e565b6101b66101dc366004610b5d565b6103cd565b6101226101ef366004610b31565b6103ec565b61015a600081565b60055461015a565b61015a610212366004610ad2565b610415565b61010d610225366004610b31565b61042c565b60045461015a565b61010d610240366004610ad2565b610451565b61010d610253366004610b7f565b61048e565b60035461015a565b610268610507565b60058190556040518181527f103e40f501cf8aa6601614ab9e5d89948505e946adb897f2a69e843762b5432b906020015b60405180910390a150565b60006001600160e01b03198216635a05180f60e01b14806102c957506102c982610561565b92915050565b6000828152602081905260409020600101546102ea81610596565b6102f483836105a0565b505050565b6001600160a01b038116331461036e5760405162461bcd60e51b815260206004820152602f60248201527f416363657373436f6e74726f6c3a2063616e206f6e6c792072656e6f756e636560448201526e103937b632b9903337b91039b2b63360891b60648201526084015b60405180910390fd5b61037882826105c2565b5050565b610384610507565b61038e60006105e4565b565b610398610507565b60038190556040518181527f9332eb53f897ef131d22653f075bec7267653c207ce387d80fc8521b878c629690602001610299565b60008281526001602052604081206103e59083610636565b9392505050565b6000918252602082815260408084206001600160a01b0393909316845291905290205460ff1690565b60008181526001602052604081206102c990610642565b60008281526020819052604090206001015461044781610596565b6102f483836105c2565b610459610507565b60048190556040518181527f20735af52b3b67c41b87fae7df5b71e9198415c368815521f4f48649fdb38c0d90602001610299565b610496610507565b6001600160a01b0381166104fb5760405162461bcd60e51b815260206004820152602660248201527f4f776e61626c653a206e6577206f776e657220697320746865207a65726f206160448201526564647265737360d01b6064820152608401610365565b610504816105e4565b50565b6002546001600160a01b0316331461038e5760405162461bcd60e51b815260206004820181905260248201527f4f776e61626c653a2063616c6c6572206973206e6f7420746865206f776e65726044820152606401610365565b60006001600160e01b03198216637965db0b60e01b14806102c957506301ffc9a760e01b6001600160e01b03198316146102c9565b610504813361064c565b6105aa82826106a5565b60008281526001602052604090206102f49082610729565b6105cc828261073e565b60008281526001602052604090206102f490826107a3565b600280546001600160a01b038381166001600160a01b0319831681179093556040519116919082907f8be0079c531659141344cd1fd0a4f28419497f9722a3daafe3b4186f6b6457e090600090a35050565b60006103e583836107b8565b60006102c9825490565b61065682826103ec565b61037857610663816107e2565b61066e8360206107f4565b60405160200161067f929190610bbe565b60408051601f198184030181529082905262461bcd60e51b825261036591600401610c2d565b6106af82826103ec565b610378576000828152602081815260408083206001600160a01b03851684529091529020805460ff191660011790556106e53390565b6001600160a01b0316816001600160a01b0316837f2f8788117e7eff1d82e926ec794901d17c78024a50270940304540a733656f0d60405160405180910390a45050565b60006103e5836001600160a01b038416610990565b61074882826103ec565b15610378576000828152602081815260408083206001600160a01b0385168085529252808320805460ff1916905551339285917ff6391f5c32d9c69d2a47ea670b442974b53935d1edc7fd64eb21e047a839171b9190a45050565b60006103e5836001600160a01b0384166109df565b60008260000182815481106107cf576107cf610c60565b9060005260206000200154905092915050565b60606102c96001600160a01b03831660145b60606000610803836002610c8c565b61080e906002610ca3565b67ffffffffffffffff81111561082657610826610cb6565b6040519080825280601f01601f191660200182016040528015610850576020820181803683370190505b509050600360fc1b8160008151811061086b5761086b610c60565b60200101906001600160f81b031916908160001a905350600f60fb1b8160018151811061089a5761089a610c60565b60200101906001600160f81b031916908160001a90535060006108be846002610c8c565b6108c9906001610ca3565b90505b6001811115610941576f181899199a1a9b1b9c1cb0b131b232b360811b85600f16601081106108fd576108fd610c60565b1a60f81b82828151811061091357610913610c60565b60200101906001600160f81b031916908160001a90535060049490941c9361093a81610ccc565b90506108cc565b5083156103e55760405162461bcd60e51b815260206004820181905260248201527f537472696e67733a20686578206c656e67746820696e73756666696369656e746044820152606401610365565b60008181526001830160205260408120546109d7575081546001818101845560008481526020808220909301849055845484825282860190935260409020919091556102c9565b5060006102c9565b60008181526001830160205260408120548015610ac8576000610a03600183610ce3565b8554909150600090610a1790600190610ce3565b9050818114610a7c576000866000018281548110610a3757610a37610c60565b9060005260206000200154905080876000018481548110610a5a57610a5a610c60565b6000918252602080832090910192909255918252600188019052604090208390555b8554869080610a8d57610a8d610cf6565b6001900381819060005260206000200160009055905585600101600086815260200190815260200160002060009055600193505050506102c9565b60009150506102c9565b600060208284031215610ae457600080fd5b5035919050565b600060208284031215610afd57600080fd5b81356001600160e01b0319811681146103e557600080fd5b80356001600160a01b0381168114610b2c57600080fd5b919050565b60008060408385031215610b4457600080fd5b82359150610b5460208401610b15565b90509250929050565b60008060408385031215610b7057600080fd5b50508035926020909101359150565b600060208284031215610b9157600080fd5b6103e582610b15565b60005b83811015610bb5578181015183820152602001610b9d565b50506000910152565b76020b1b1b2b9b9a1b7b73a3937b61d1030b1b1b7bab73a1604d1b815260008351610bf0816017850160208801610b9a565b7001034b99036b4b9b9b4b733903937b6329607d1b6017918401918201528351610c21816028840160208801610b9a565b01602801949350505050565b6020815260008251806020840152610c4c816040850160208701610b9a565b601f01601f19169190910160400192915050565b634e487b7160e01b600052603260045260246000fd5b634e487b7160e01b600052601160045260246000fd5b80820281158282048414176102c9576102c9610c76565b808201808211156102c9576102c9610c76565b634e487b7160e01b600052604160045260246000fd5b600081610cdb57610cdb610c76565b506000190190565b818103818111156102c9576102c9610c76565b634e487b7160e01b600052603160045260246000fdfea2646970667358221220cd6b8f207badff48a083410ac35b283d14f5bc3025d7ec60e81ab95f33960ed864736f6c63430008120033",
  "linkReferences": {},
  "deployedLinkReferences": {}
}