{
  "_format": "hh-sol-artifact-1",
  "contractName": "PayLaterRepaymentController",
  "sourceName": "contracts/PayLaterRepaymentController.sol",
  "abi": [
    {
      "inputs": [
        {
          "internalType": "contract IPayLaterLoanCore",
          "name": "_loanCore",
          "type": "address"
        }
      ],
      "stateMutability": "nonpayable",
      "type": "constructor"
    },
    {
      "inputs": [
        {
          "internalType": "address",
          "name": "nftAddress",
          "type": "address"
        },
        {
          "internalType": "uint256",
          "name": "tokenId",
          "type": "uint256"
        },
        {
          "internalType": "uint256",
          "name": "price",
          "type": "uint256"
        }
      ],
      "name": "PriceNotMet",
      "type": "error"
    },
    {
      "inputs": [
        {
          "internalType": "uint256",
          "name": "loanId",
          "type": "uint256"
        }
      ],
      "name": "claim",
      "outputs": [],
      "stateMutability": "nonpayable",
      "type": "function"
    },
    {
      "inputs": [
        {
          "internalType": "uint256",
          "name": "loanId",
          "type": "uint256"
        }
      ],
      "name": "claimRental",
      "outputs": [],
      "stateMutability": "nonpayable",
      "type": "function"
    },
    {
      "inputs": [
        {
          "internalType": "uint256",
          "name": "loanId",
          "type": "uint256"
        }
      ],
      "name": "repay",
      "outputs": [],
      "stateMutability": "payable",
      "type": "function"
    },
    {
      "inputs": [
        {
          "internalType": "uint256",
          "name": "loanId",
          "type": "uint256"
        }
      ],
      "name": "repayRental",
      "outputs": [],
      "stateMutability": "nonpayable",
      "type": "function"
    }
  ],
  "bytecode": "0x608060405234801561001057600080fd5b5060405161128b38038061128b83398101604081905261002f91610054565b600080546001600160a01b0319166001600160a01b0392909216919091179055610084565b60006020828403121561006657600080fd5b81516001600160a01b038116811461007d57600080fd5b9392505050565b6111f8806100936000396000f3fe60806040526004361061003f5760003560e01c8063371fd8e614610044578063379607f5146100595780634b6af90314610079578063582dcbd014610099575b600080fd5b610057610052366004610de9565b6100b9565b005b34801561006557600080fd5b50610057610074366004610de9565b61050b565b34801561008557600080fd5b50610057610094366004610de9565b6106c8565b3480156100a557600080fd5b506100576100b4366004610de9565b610847565b806000036101345760405162461bcd60e51b815260206004820152603d60248201527f5061794c6174657252657061796d656e74436f6e74726f6c6c65723a2072657060448201527f617920636f756c64206e6f742064657265666572656e6365206c6f616e00000060648201526084015b60405180910390fd5b60008054604051632820036560e11b8152600481018490526001600160a01b039091169063504006ca906024016101c060405180830381865afa15801561017f573d6000803e3d6000fd5b505050506040513d601f19601f820116820180604052508101906101a39190610f30565b6060015160008054604051632820036560e11b81526004810186905292935090916001600160a01b039091169063504006ca906024016101c060405180830381865afa1580156101f7573d6000803e3d6000fd5b505050506040513d601f19601f8201168201806040525081019061021b9190610f30565b60008054604051633bc2b3bd60e01b815260048101879052929350909182916001600160a01b031690633bc2b3bd906024016040805180830381865afa158015610269573d6000803e3d6000fd5b505050506040513d601f19601f8201168201806040525081019061028d9190610fcc565b91509150816000036102fe5760405162461bcd60e51b815260206004820152603460248201527f5061794c6174657252657061796d656e74436f6e74726f6c6c65723a204e6f2060448201527350656e64696e6720496e7374616c6c6d656e747360601b606482015260840161012b565b60808401516001600160a01b031661035857813410156103535760c08301516060850151604051637c93456560e01b81526001600160a01b03909216600483015260248201526044810183905260640161012b565b610372565b6080840151610372906001600160a01b0316333085610b22565b60808401516001600160a01b03166104095760005460405163895a748560e01b81526004810187905260248101849052604481018390526001600160a01b039091169063895a748590849060640160206040518083038185885af11580156103de573d6000803e3d6000fd5b50505050506040513d601f19601f820116820180604052508101906104039190610ff0565b50610504565b608084015160005460405163095ea7b360e01b81526001600160a01b0391821660048201526024810185905291169063095ea7b3906044016020604051808303816000875af1158015610460573d6000803e3d6000fd5b505050506040513d601f19601f820116820180604052508101906104849190610ff0565b5060005460405163895a748560e01b81526004810187905260248101849052604481018390526001600160a01b039091169063895a7485906064016020604051808303816000875af11580156104de573d6000803e3d6000fd5b505050506040513d601f19601f820116820180604052508101906105029190610ff0565b505b5050505050565b60008054604051632820036560e11b8152600481018490526001600160a01b039091169063504006ca906024016101c060405180830381865afa158015610556573d6000803e3d6000fd5b505050506040513d601f19601f8201168201806040525081019061057a9190610f30565b60408101519091506001600160a01b031633146105f75760405162461bcd60e51b815260206004820152603560248201527f5061794c6174657252657061796d656e74436f6e74726f6c6c65723a206e6f74604482015274206f776e6572206f66206c656e646572206e6f746560581b606482015260840161012b565b8160000361066d5760405162461bcd60e51b815260206004820152603d60248201527f5061794c6174657252657061796d656e74436f6e74726f6c6c65723a20636c6160448201527f696d20636f756c64206e6f742064657265666572656e6365206c6f616e000000606482015260840161012b565b60005460405163379607f560e01b8152600481018490526001600160a01b039091169063379607f5906024015b600060405180830381600087803b1580156106b457600080fd5b505af1158015610502573d6000803e3d6000fd5b60008054604051633295e94f60e11b8152600481018490526001600160a01b039091169063652bd29e906024016101c060405180830381865afa158015610713573d6000803e3d6000fd5b505050506040513d601f19601f8201168201806040525081019061073791906110a8565b60408101519091506001600160a01b031633146107a25760405162461bcd60e51b8152602060048201526024808201527f52656e74616c52657061796d656e74436f6e74726f6c6c65723a206e6f74206f6044820152633bb732b960e11b606482015260840161012b565b816000036108165760405162461bcd60e51b815260206004820152603b60248201527f52656e74616c52657061796d656e74436f6e74726f6c6c65723a20636c61696d60448201527a1031b7bab632103737ba103232b932b332b932b731b2903637b0b760291b606482015260840161012b565b60005460405163b995854160e01b8152600481018490526001600160a01b039091169063b99585419060240161069a565b806000036108bb5760405162461bcd60e51b815260206004820152603b60248201527f52656e74616c52657061796d656e74436f6e74726f6c6c65723a20726570617960448201527a1031b7bab632103737ba103232b932b332b932b731b2903637b0b760291b606482015260840161012b565b60008054604051633295e94f60e11b8152600481018490526001600160a01b039091169063652bd29e906024016101c060405180830381865afa158015610906573d6000803e3d6000fd5b505050506040513d601f19601f8201168201806040525081019061092a91906110a8565b6060015160008054604051635194bef760e01b815260048101869052929350909182916001600160a01b031690635194bef7906024016040805180830381865afa15801561097c573d6000803e3d6000fd5b505050506040513d601f19601f820116820180604052508101906109a09190610fcc565b9150915081600003610a0f5760405162461bcd60e51b815260206004820152603260248201527f52656e74616c52657061796d656e74436f6e74726f6c6c65723a204e6f2050656044820152716e64696e6720496e7374616c6c6d656e747360701b606482015260840161012b565b6060830151610a29906001600160a01b0316333085610b22565b606083015160005460405163095ea7b360e01b81526001600160a01b0391821660048201526024810185905291169063095ea7b3906044016020604051808303816000875af1158015610a80573d6000803e3d6000fd5b505050506040513d601f19601f82011682018060405250810190610aa49190610ff0565b5060005460405163fa6c15a360e01b81526004810186905260248101849052604481018390526001600160a01b039091169063fa6c15a3906064016020604051808303816000875af1158015610afe573d6000803e3d6000fd5b505050506040513d601f19601f820116820180604052508101906105049190610ff0565b604080516001600160a01b0385811660248301528416604482015260648082018490528251808303909101815260849091019091526020810180516001600160e01b03166323b872dd60e01b179052610b7c908590610b82565b50505050565b6000610bd7826040518060400160405280602081526020017f5361666545524332303a206c6f772d6c6576656c2063616c6c206661696c6564815250856001600160a01b0316610c599092919063ffffffff16565b805190915015610c545780806020019051810190610bf59190610ff0565b610c545760405162461bcd60e51b815260206004820152602a60248201527f5361666545524332303a204552433230206f7065726174696f6e20646964206e6044820152691bdd081cdd58d8d9595960b21b606482015260840161012b565b505050565b6060610c688484600085610c70565b949350505050565b606082471015610cd15760405162461bcd60e51b815260206004820152602660248201527f416464726573733a20696e73756666696369656e742062616c616e636520666f6044820152651c8818d85b1b60d21b606482015260840161012b565b600080866001600160a01b03168587604051610ced9190611173565b60006040518083038185875af1925050503d8060008114610d2a576040519150601f19603f3d011682016040523d82523d6000602084013e610d2f565b606091505b5091509150610d4087838387610d4b565b979650505050505050565b60608315610dba578251600003610db3576001600160a01b0385163b610db35760405162461bcd60e51b815260206004820152601d60248201527f416464726573733a2063616c6c20746f206e6f6e2d636f6e7472616374000000604482015260640161012b565b5081610c68565b610c688383815115610dcf5781518083602001fd5b8060405162461bcd60e51b815260040161012b919061118f565b600060208284031215610dfb57600080fd5b5035919050565b604051610100810167ffffffffffffffff81118282101715610e3457634e487b7160e01b600052604160045260246000fd5b60405290565b604051610120810167ffffffffffffffff81118282101715610e3457634e487b7160e01b600052604160045260246000fd5b80516001600160a01b0381168114610e8357600080fd5b919050565b600060e08284031215610e9a57600080fd5b60405160e0810181811067ffffffffffffffff82111715610ecb57634e487b7160e01b600052604160045260246000fd5b806040525080915082518152602083015160208201526040830151604082015260608301516060820152610f0160808401610e6c565b608082015260a083015160a082015260c083015160c08201525092915050565b805160058110610e8357600080fd5b60006101c08284031215610f4357600080fd5b610f4b610e02565b610f5483610e6c565b8152610f6260208401610e6c565b6020820152610f7360408401610e6c565b6040820152610f858460608501610e88565b6060820152610f976101408401610f21565b608082015261016083015160a0820152610fb46101808401610e6c565b60c08201526101a0929092015160e083015250919050565b60008060408385031215610fdf57600080fd5b505080516020909101519092909150565b60006020828403121561100257600080fd5b8151801515811461101257600080fd5b9392505050565b600060c0828403121561102b57600080fd5b60405160c0810181811067ffffffffffffffff8211171561105c57634e487b7160e01b600052604160045260246000fd5b806040525080915082518152602083015160208201526040830151604082015261108860608401610e6c565b60608201526080830151608082015260a083015160a08201525092915050565b60006101c082840312156110bb57600080fd5b6110c3610e3a565b6110cc83610e6c565b81526110da60208401610e6c565b60208201526110eb60408401610e6c565b60408201526110fd8460608501611019565b606082015261110f6101208401610f21565b608082015261014083015160a082015261112c6101608401610e6c565b60c082015261018083015160e08201526101a09092015161010083015250919050565b60005b8381101561116a578181015183820152602001611152565b50506000910152565b6000825161118581846020870161114f565b9190910192915050565b60208152600082518060208401526111ae81604085016020870161114f565b601f01601f1916919091016040019291505056fea26469706673582212205fbef82c00e597e81652537dff6849fc520dcaff20be9545ac52e33c01bc086164736f6c63430008120033",
  "linkReferences": {},
  "deployedLinkReferences": {}
}